{"contracts/contrato.sol":{"Contrato":{"abi":[{"anonymous":false,"inputs":[{"indexed":true,"internalType":"uint256","name":"parcelId","type":"uint256"},{"indexed":true,"internalType":"uint256","name":"prodId","type":"uint256"},{"indexed":false,"internalType":"uint256","name":"timestamp","type":"uint256"},{"indexed":false,"internalType":"bytes32","name":"dataHash","type":"bytes32"}],"name":"DataHashStored","type":"event"},{"inputs":[{"internalType":"bytes32","name":"","type":"bytes32"}],"name":"dataHashes","outputs":[{"internalType":"bytes32","name":"","type":"bytes32"}],"stateMutability":"view","type":"function"},{"inputs":[{"internalType":"uint256","name":"parcelId","type":"uint256"},{"internalType":"uint256","name":"prodId","type":"uint256"},{"internalType":"uint256","name":"timestamp","type":"uint256"}],"name":"getDataHash","outputs":[{"internalType":"bytes32","name":"","type":"bytes32"}],"stateMutability":"view","type":"function"},{"inputs":[{"internalType":"uint256","name":"parcelId","type":"uint256"},{"internalType":"uint256","name":"prodId","type":"uint256"},{"internalType":"uint256","name":"timestamp","type":"uint256"},{"internalType":"bytes32","name":"dataHash","type":"bytes32"}],"name":"storeDataHash","outputs":[],"stateMutability":"nonpayable","type":"function"}],"evm":{"bytecode":{"linkReferences":{},"object":"6080604052348015600f57600080fd5b506102108061001f6000396000f3fe608060405234801561001057600080fd5b50600436106100415760003560e01c806337bf6a5b146100465780638ea768fe1461005b578063ee428b891461008d575b600080fd5b610059610054366004610163565b6100de565b005b61007b610069366004610195565b60006020819052908152604090205481565b60405190815260200160405180910390f35b61007b61009b3660046101ae565b6040805160208082019590955280820193909352606080840192909252805180840390920182526080909201825280519083012060009081529182905290205490565b604080516020808201879052818301869052606080830186905283518084039091018152608083018085528151918301919091206000818152928390529184902085905585905260a082018490529151859187917f1f77a54b335adb701de2259c977e384069c211c092f12a8420df3c8472fac3709181900360c00190a35050505050565b6000806000806080858703121561017957600080fd5b5050823594602084013594506040840135936060013592509050565b6000602082840312156101a757600080fd5b5035919050565b6000806000606084860312156101c357600080fd5b50508135936020830135935060409092013591905056fea2646970667358221220407b2891d6ac0a971277851627398168357a5b6de514ddaecf7cb9b3300ed93a64736f6c634300081c0033","opcodes":"PUSH1 0x80 PUSH1 0x40 MSTORE CALLVALUE DUP1 ISZERO PUSH1 0xF JUMPI PUSH1 0x0 DUP1 REVERT JUMPDEST POP PUSH2 0x210 DUP1 PUSH2 0x1F PUSH1 0x0 CODECOPY PUSH1 0x0 RETURN INVALID PUSH1 0x80 PUSH1 0x40 MSTORE CALLVALUE DUP1 ISZERO PUSH2 0x10 JUMPI PUSH1 0x0 DUP1 REVERT JUMPDEST POP PUSH1 0x4 CALLDATASIZE LT PUSH2 0x41 JUMPI PUSH1 0x0 CALLDATALOAD PUSH1 0xE0 SHR DUP1 PUSH4 0x37BF6A5B EQ PUSH2 0x46 JUMPI DUP1 PUSH4 0x8EA768FE EQ PUSH2 0x5B JUMPI DUP1 PUSH4 0xEE428B89 EQ PUSH2 0x8D JUMPI JUMPDEST PUSH1 0x0 DUP1 REVERT JUMPDEST PUSH2 0x59 PUSH2 0x54 CALLDATASIZE PUSH1 0x4 PUSH2 0x163 JUMP JUMPDEST PUSH2 0xDE JUMP JUMPDEST STOP JUMPDEST PUSH2 0x7B PUSH2 0x69 CALLDATASIZE PUSH1 0x4 PUSH2 0x195 JUMP JUMPDEST PUSH1 0x0 PUSH1 0x20 DUP2 SWAP1 MSTORE SWAP1 DUP2 MSTORE PUSH1 0x40 SWAP1 KECCAK256 SLOAD DUP2 JUMP JUMPDEST PUSH1 0x40 MLOAD SWAP1 DUP2 MSTORE PUSH1 0x20 ADD PUSH1 0x40 MLOAD DUP1 SWAP2 SUB SWAP1 RETURN JUMPDEST PUSH2 0x7B PUSH2 0x9B CALLDATASIZE PUSH1 0x4 PUSH2 0x1AE JUMP JUMPDEST PUSH1 0x40 DUP1 MLOAD PUSH1 0x20 DUP1 DUP3 ADD SWAP6 SWAP1 SWAP6 MSTORE DUP1 DUP3 ADD SWAP4 SWAP1 SWAP4 MSTORE PUSH1 0x60 DUP1 DUP5 ADD SWAP3 SWAP1 SWAP3 MSTORE DUP1 MLOAD DUP1 DUP5 SUB SWAP1 SWAP3 ADD DUP3 MSTORE PUSH1 0x80 SWAP1 SWAP3 ADD DUP3 MSTORE DUP1 MLOAD SWAP1 DUP4 ADD KECCAK256 PUSH1 0x0 SWAP1 DUP2 MSTORE SWAP2 DUP3 SWAP1 MSTORE SWAP1 KECCAK256 SLOAD SWAP1 JUMP JUMPDEST PUSH1 0x40 DUP1 MLOAD PUSH1 0x20 DUP1 DUP3 ADD DUP8 SWAP1 MSTORE DUP2 DUP4 ADD DUP7 SWAP1 MSTORE PUSH1 0x60 DUP1 DUP4 ADD DUP7 SWAP1 MSTORE DUP4 MLOAD DUP1 DUP5 SUB SWAP1 SWAP2 ADD DUP2 MSTORE PUSH1 0x80 DUP4 ADD DUP1 DUP6 MSTORE DUP2 MLOAD SWAP2 DUP4 ADD SWAP2 SWAP1 SWAP2 KECCAK256 PUSH1 0x0 DUP2 DUP2 MSTORE SWAP3 DUP4 SWAP1 MSTORE SWAP2 DUP5 SWAP1 KECCAK256 DUP6 SWAP1 SSTORE DUP6 SWAP1 MSTORE PUSH1 0xA0 DUP3 ADD DUP5 SWAP1 MSTORE SWAP2 MLOAD DUP6 SWAP2 DUP8 SWAP2 PUSH32 0x1F77A54B335ADB701DE2259C977E384069C211C092F12A8420DF3C8472FAC370 SWAP2 DUP2 SWAP1 SUB PUSH1 0xC0 ADD SWAP1 LOG3 POP POP POP POP POP JUMP JUMPDEST PUSH1 0x0 DUP1 PUSH1 0x0 DUP1 PUSH1 0x80 DUP6 DUP8 SUB SLT ISZERO PUSH2 0x179 JUMPI PUSH1 0x0 DUP1 REVERT JUMPDEST POP POP DUP3 CALLDATALOAD SWAP5 PUSH1 0x20 DUP5 ADD CALLDATALOAD SWAP5 POP PUSH1 0x40 DUP5 ADD CALLDATALOAD SWAP4 PUSH1 0x60 ADD CALLDATALOAD SWAP3 POP SWAP1 POP JUMP JUMPDEST PUSH1 0x0 PUSH1 0x20 DUP3 DUP5 SUB SLT ISZERO PUSH2 0x1A7 JUMPI PUSH1 0x0 DUP1 REVERT JUMPDEST POP CALLDATALOAD SWAP2 SWAP1 POP JUMP JUMPDEST PUSH1 0x0 DUP1 PUSH1 0x0 PUSH1 0x60 DUP5 DUP7 SUB SLT ISZERO PUSH2 0x1C3 JUMPI PUSH1 0x0 DUP1 REVERT JUMPDEST POP POP DUP2 CALLDATALOAD SWAP4 PUSH1 0x20 DUP4 ADD CALLDATALOAD SWAP4 POP PUSH1 0x40 SWAP1 SWAP3 ADD CALLDATALOAD SWAP2 SWAP1 POP JUMP INVALID LOG2 PUSH5 0x6970667358 0x22 SLT KECCAK256 BLOCKHASH PUSH28 0x2891D6AC0A971277851627398168357A5B6DE514DDAECF7CB9B3300E 0xD9 GASPRICE PUSH5 0x736F6C6343 STOP ADDMOD SHR STOP CALLER "},"methodIdentifiers":{"dataHashes(bytes32)":"8ea768fe","getDataHash(uint256,uint256,uint256)":"ee428b89","storeDataHash(uint256,uint256,uint256,bytes32)":"37bf6a5b"}}}}}