{"contracts/contrato.sol":{"Contrato":{"abi":[{"anonymous":false,"inputs":[{"indexed":true,"internalType":"bytes12","name":"oid","type":"bytes12"},{"indexed":false,"internalType":"uint256","name":"timestamp","type":"uint256"},{"indexed":false,"internalType":"bytes32","name":"dynamicHash","type":"bytes32"}],"name":"DynamicHashStored","type":"event"},{"anonymous":false,"inputs":[{"indexed":true,"internalType":"bytes12","name":"oid","type":"bytes12"},{"indexed":false,"internalType":"uint256","name":"timestamp","type":"uint256"},{"indexed":false,"internalType":"bytes32","name":"masterHash","type":"bytes32"}],"name":"MasterHashStored","type":"event"},{"anonymous":false,"inputs":[{"indexed":true,"internalType":"bytes12","name":"oid","type":"bytes12"},{"indexed":false,"internalType":"uint256","name":"timestamp","type":"uint256"},{"indexed":false,"internalType":"bytes32","name":"versionHash","type":"bytes32"},{"indexed":false,"internalType":"uint256","name":"version","type":"uint256"}],"name":"VersionHashStored","type":"event"},{"inputs":[{"internalType":"bytes12","name":"","type":"bytes12"}],"name":"dynamicRecords","outputs":[{"internalType":"uint256","name":"timestamp","type":"uint256"},{"internalType":"bytes32","name":"dynamicHash","type":"bytes32"}],"stateMutability":"view","type":"function"},{"inputs":[{"internalType":"bytes12","name":"oid","type":"bytes12"}],"name":"getDynamicHash","outputs":[{"internalType":"uint256","name":"timestamp","type":"uint256"},{"internalType":"bytes32","name":"dataHash","type":"bytes32"}],"stateMutability":"view","type":"function"},{"inputs":[{"internalType":"bytes12","name":"oid","type":"bytes12"}],"name":"getMasterHash","outputs":[{"internalType":"uint256","name":"timestamp","type":"uint256"},{"internalType":"bytes32","name":"dataHash","type":"bytes32"}],"stateMutability":"view","type":"function"},{"inputs":[{"internalType":"bytes12","name":"oid","type":"bytes12"},{"internalType":"uint256","name":"dppVersion","type":"uint256"}],"name":"getVersionHash","outputs":[{"internalType":"uint256","name":"timestamp","type":"uint256"},{"internalType":"bytes32","name":"versionHash","type":"bytes32"},{"internalType":"uint256","name":"version","type":"uint256"}],"stateMutability":"view","type":"function"},{"inputs":[{"internalType":"bytes12","name":"oid","type":"bytes12"}],"name":"getVersionHashes","outputs":[{"internalType":"uint256[]","name":"timestamps","type":"uint256[]"},{"internalType":"bytes32[]","name":"versionHashes","type":"bytes32[]"},{"internalType":"uint256[]","name":"versions","type":"uint256[]"}],"stateMutability":"view","type":"function"},{"inputs":[{"internalType":"bytes12","name":"","type":"bytes12"}],"name":"records","outputs":[{"internalType":"uint256","name":"timestamp","type":"uint256"},{"internalType":"bytes32","name":"masterHash","type":"bytes32"}],"stateMutability":"view","type":"function"},{"inputs":[{"internalType":"bytes12","name":"oid","type":"bytes12"},{"internalType":"uint256","name":"timestamp","type":"uint256"},{"internalType":"bytes32","name":"dynamicHash","type":"bytes32"}],"name":"storeDynamicHash","outputs":[],"stateMutability":"nonpayable","type":"function"},{"inputs":[{"internalType":"bytes12","name":"oid","type":"bytes12"},{"internalType":"uint256","name":"timestamp","type":"uint256"},{"internalType":"bytes32","name":"masterHash","type":"bytes32"}],"name":"storeMasterHash","outputs":[],"stateMutability":"nonpayable","type":"function"},{"inputs":[{"internalType":"bytes12","name":"oid","type":"bytes12"},{"internalType":"uint256","name":"timestamp","type":"uint256"},{"internalType":"bytes32","name":"versionHash","type":"bytes32"},{"internalType":"uint256","name":"dppVersion","type":"uint256"}],"name":"storeVersionHash","outputs":[],"stateMutability":"nonpayable","type":"function"},{"inputs":[{"internalType":"bytes12","name":"","type":"bytes12"},{"internalType":"uint256","name":"","type":"uint256"}],"name":"versionRecords","outputs":[{"internalType":"uint256","name":"timestamp","type":"uint256"},{"internalType":"bytes32","name":"versionHash","type":"bytes32"},{"internalType":"uint256","name":"version","type":"uint256"}],"stateMutability":"view","type":"function"}],"evm":{"bytecode":{"linkReferences":{},"object":"6080604052348015600f57600080fd5b506107d58061001f6000396000f3fe608060405234801561001057600080fd5b506004361061009e5760003560e01c80639af6a7b6116100665780639af6a7b614610160578063a078b38e14610187578063e62eb184146101b9578063e7b49329146101cc578063f9cdc0fc1461022d57600080fd5b80631924c8ad146100a35780631e542dbe146100e45780632724516f146101165780632eb3b8bf1461012b57806353cba4a21461014d575b600080fd5b6100ca6100b1366004610612565b6000602081905290815260409020805460019091015482565b604080519283526020830191909152015b60405180910390f35b6100ca6100f2366004610612565b6001600160a01b031916600090815260016020819052604090912080549101549091565b610129610124366004610634565b610263565b005b61013e610139366004610612565b6102da565b6040516100db939291906106a3565b61012961015b366004610710565b610497565b6100ca61016e366004610612565b6001602081905260009182526040909120805491015482565b6100ca610195366004610612565b6001600160a01b031916600090815260208190526040902080546001909101549091565b6101296101c7366004610634565b610585565b6102126101da366004610749565b6001600160a01b0319821660009081526002602081815260408084208585529091529091208054600182015491909201549250925092565b604080519384526020840192909252908201526060016100db565b61021261023b366004610749565b6002602081815260009384526040808520909152918352912080546001820154919092015483565b60408051808201825283815260208082018481526001600160a01b031987166000818152808452859020935184559051600190930192909255825185815290810184905290917f5f35067f386968f4fac5760cf309d18f16025a16cb7d23b1272f6afb3cf2c14991015b60405180910390a2505050565b6001600160a01b031981166000908152600360205260409020805460609182918291908067ffffffffffffffff81111561031657610316610773565b60405190808252806020026020018201604052801561033f578160200160208202803683370190505b5094508067ffffffffffffffff81111561035b5761035b610773565b604051908082528060200260200182016040528015610384578160200160208202803683370190505b5093508067ffffffffffffffff8111156103a0576103a0610773565b6040519080825280602002602001820160405280156103c9578160200160208202803683370190505b50925060005b8181101561048d5760008382815481106103eb576103eb610789565b60009182526020808320909101546001600160a01b03198b168352600282526040808420828552909252912080548951929350909189908590811061043257610432610789565b602002602001018181525050806001015487848151811061045557610455610789565b602002602001018181525050806002015486848151811061047857610478610789565b602090810291909101015250506001016103cf565b5050509193909250565b6001600160a01b03198416600090815260026020908152604080832084845290915281205490036104ef576001600160a01b031984166000908152600360209081526040822080546001810182559083529120018190555b604080516060808201835285825260208083018681528385018681526001600160a01b03198a16600081815260028086528882208a8352865290889020965187559251600187015590519490910193909355835187815290810186905292830184905290917faea086b6870efe42ce9c82f2ae6febf4e641fd48f7fc1967f5c74aebf5a34825910160405180910390a250505050565b60408051808201825283815260208082018481526001600160a01b0319871660008181526001808552908690209451855591519390910192909255825185815290810184905290917fde9ee63512b36bdd186dd245f28ec7129c70eeb0849d262f3f1b33ba93138d5d91016102cd565b80356001600160a01b03198116811461060d57600080fd5b919050565b60006020828403121561062457600080fd5b61062d826105f5565b9392505050565b60008060006060848603121561064957600080fd5b610652846105f5565b95602085013595506040909401359392505050565b600081518084526020840193506020830160005b8281101561069957815186526020958601959091019060010161067b565b5093949350505050565b6060815260006106b66060830186610667565b828103602084015280855180835260208301915060208701925060005b818110156106f15783518352602093840193909201916001016106d3565b505083810360408501526107058186610667565b979650505050505050565b6000806000806080858703121561072657600080fd5b61072f856105f5565b966020860135965060408601359560600135945092505050565b6000806040838503121561075c57600080fd5b610765836105f5565b946020939093013593505050565b634e487b7160e01b600052604160045260246000fd5b634e487b7160e01b600052603260045260246000fdfea264697066735822122090f06d4587a3d5be8d77bfd34f53558f5d2dae648cd12ed7a6ff02a5a110a95164736f6c634300081c0033","opcodes":"PUSH1 0x80 PUSH1 0x40 MSTORE CALLVALUE DUP1 ISZERO PUSH1 0xF JUMPI PUSH1 0x0 DUP1 REVERT JUMPDEST POP PUSH2 0x7D5 DUP1 PUSH2 0x1F PUSH1 0x0 CODECOPY PUSH1 0x0 RETURN INVALID PUSH1 0x80 PUSH1 0x40 MSTORE CALLVALUE DUP1 ISZERO PUSH2 0x10 JUMPI PUSH1 0x0 DUP1 REVERT JUMPDEST POP PUSH1 0x4 CALLDATASIZE LT PUSH2 0x9E JUMPI PUSH1 0x0 CALLDATALOAD PUSH1 0xE0 SHR DUP1 PUSH4 0x9AF6A7B6 GT PUSH2 0x66 JUMPI DUP1 PUSH4 0x9AF6A7B6 EQ PUSH2 0x160 JUMPI DUP1 PUSH4 0xA078B38E EQ PUSH2 0x187 JUMPI DUP1 PUSH4 0xE62EB184 EQ PUSH2 0x1B9 JUMPI DUP1 PUSH4 0xE7B49329 EQ PUSH2 0x1CC JUMPI DUP1 PUSH4 0xF9CDC0FC EQ PUSH2 0x22D JUMPI PUSH1 0x0 DUP1 REVERT JUMPDEST DUP1 PUSH4 0x1924C8AD EQ PUSH2 0xA3 JUMPI DUP1 PUSH4 0x1E542DBE EQ PUSH2 0xE4 JUMPI DUP1 PUSH4 0x2724516F EQ PUSH2 0x116 JUMPI DUP1 PUSH4 0x2EB3B8BF EQ PUSH2 0x12B JUMPI DUP1 PUSH4 0x53CBA4A2 EQ PUSH2 0x14D JUMPI JUMPDEST PUSH1 0x0 DUP1 REVERT JUMPDEST PUSH2 0xCA PUSH2 0xB1 CALLDATASIZE PUSH1 0x4 PUSH2 0x612 JUMP JUMPDEST PUSH1 0x0 PUSH1 0x20 DUP2 SWAP1 MSTORE SWAP1 DUP2 MSTORE PUSH1 0x40 SWAP1 KECCAK256 DUP1 SLOAD PUSH1 0x1 SWAP1 SWAP2 ADD SLOAD DUP3 JUMP JUMPDEST PUSH1 0x40 DUP1 MLOAD SWAP3 DUP4 MSTORE PUSH1 0x20 DUP4 ADD SWAP2 SWAP1 SWAP2 MSTORE ADD JUMPDEST PUSH1 0x40 MLOAD DUP1 SWAP2 SUB SWAP1 RETURN JUMPDEST PUSH2 0xCA PUSH2 0xF2 CALLDATASIZE PUSH1 0x4 PUSH2 0x612 JUMP JUMPDEST PUSH1 0x1 PUSH1 0x1 PUSH1 0xA0 SHL SUB NOT AND PUSH1 0x0 SWAP1 DUP2 MSTORE PUSH1 0x1 PUSH1 0x20 DUP2 SWAP1 MSTORE PUSH1 0x40 SWAP1 SWAP2 KECCAK256 DUP1 SLOAD SWAP2 ADD SLOAD SWAP1 SWAP2 JUMP JUMPDEST PUSH2 0x129 PUSH2 0x124 CALLDATASIZE PUSH1 0x4 PUSH2 0x634 JUMP JUMPDEST PUSH2 0x263 JUMP JUMPDEST STOP JUMPDEST PUSH2 0x13E PUSH2 0x139 CALLDATASIZE PUSH1 0x4 PUSH2 0x612 JUMP JUMPDEST PUSH2 0x2DA JUMP JUMPDEST PUSH1 0x40 MLOAD PUSH2 0xDB SWAP4 SWAP3 SWAP2 SWAP1 PUSH2 0x6A3 JUMP JUMPDEST PUSH2 0x129 PUSH2 0x15B CALLDATASIZE PUSH1 0x4 PUSH2 0x710 JUMP JUMPDEST PUSH2 0x497 JUMP JUMPDEST PUSH2 0xCA PUSH2 0x16E CALLDATASIZE PUSH1 0x4 PUSH2 0x612 JUMP JUMPDEST PUSH1 0x1 PUSH1 0x20 DUP2 SWAP1 MSTORE PUSH1 0x0 SWAP2 DUP3 MSTORE PUSH1 0x40 SWAP1 SWAP2 KECCAK256 DUP1 SLOAD SWAP2 ADD SLOAD DUP3 JUMP JUMPDEST PUSH2 0xCA PUSH2 0x195 CALLDATASIZE PUSH1 0x4 PUSH2 0x612 JUMP JUMPDEST PUSH1 0x1 PUSH1 0x1 PUSH1 0xA0 SHL SUB NOT AND PUSH1 0x0 SWAP1 DUP2 MSTORE PUSH1 0x20 DUP2 SWAP1 MSTORE PUSH1 0x40 SWAP1 KECCAK256 DUP1 SLOAD PUSH1 0x1 SWAP1 SWAP2 ADD SLOAD SWAP1 SWAP2 JUMP JUMPDEST PUSH2 0x129 PUSH2 0x1C7 CALLDATASIZE PUSH1 0x4 PUSH2 0x634 JUMP JUMPDEST PUSH2 0x585 JUMP JUMPDEST PUSH2 0x212 PUSH2 0x1DA CALLDATASIZE PUSH1 0x4 PUSH2 0x749 JUMP JUMPDEST PUSH1 0x1 PUSH1 0x1 PUSH1 0xA0 SHL SUB NOT DUP3 AND PUSH1 0x0 SWAP1 DUP2 MSTORE PUSH1 0x2 PUSH1 0x20 DUP2 DUP2 MSTORE PUSH1 0x40 DUP1 DUP5 KECCAK256 DUP6 DUP6 MSTORE SWAP1 SWAP2 MSTORE SWAP1 SWAP2 KECCAK256 DUP1 SLOAD PUSH1 0x1 DUP3 ADD SLOAD SWAP2 SWAP1 SWAP3 ADD SLOAD SWAP3 POP SWAP3 POP SWAP3 JUMP JUMPDEST PUSH1 0x40 DUP1 MLOAD SWAP4 DUP5 MSTORE PUSH1 0x20 DUP5 ADD SWAP3 SWAP1 SWAP3 MSTORE SWAP1 DUP3 ADD MSTORE PUSH1 0x60 ADD PUSH2 0xDB JUMP JUMPDEST PUSH2 0x212 PUSH2 0x23B CALLDATASIZE PUSH1 0x4 PUSH2 0x749 JUMP JUMPDEST PUSH1 0x2 PUSH1 0x20 DUP2 DUP2 MSTORE PUSH1 0x0 SWAP4 DUP5 MSTORE PUSH1 0x40 DUP1 DUP6 KECCAK256 SWAP1 SWAP2 MSTORE SWAP2 DUP4 MSTORE SWAP2 KECCAK256 DUP1 SLOAD PUSH1 0x1 DUP3 ADD SLOAD SWAP2 SWAP1 SWAP3 ADD SLOAD DUP4 JUMP JUMPDEST PUSH1 0x40 DUP1 MLOAD DUP1 DUP3 ADD DUP3 MSTORE DUP4 DUP2 MSTORE PUSH1 0x20 DUP1 DUP3 ADD DUP5 DUP2 MSTORE PUSH1 0x1 PUSH1 0x1 PUSH1 0xA0 SHL SUB NOT DUP8 AND PUSH1 0x0 DUP2 DUP2 MSTORE DUP1 DUP5 MSTORE DUP6 SWAP1 KECCAK256 SWAP4 MLOAD DUP5 SSTORE SWAP1 MLOAD PUSH1 0x1 SWAP1 SWAP4 ADD SWAP3 SWAP1 SWAP3 SSTORE DUP3 MLOAD DUP6 DUP2 MSTORE SWAP1 DUP2 ADD DUP5 SWAP1 MSTORE SWAP1 SWAP2 PUSH32 0x5F35067F386968F4FAC5760CF309D18F16025A16CB7D23B1272F6AFB3CF2C149 SWAP2 ADD JUMPDEST PUSH1 0x40 MLOAD DUP1 SWAP2 SUB SWAP1 LOG2 POP POP POP JUMP JUMPDEST PUSH1 0x1 PUSH1 0x1 PUSH1 0xA0 SHL SUB NOT DUP2 AND PUSH1 0x0 SWAP1 DUP2 MSTORE PUSH1 0x3 PUSH1 0x20 MSTORE PUSH1 0x40 SWAP1 KECCAK256 DUP1 SLOAD PUSH1 0x60 SWAP2 DUP3 SWAP2 DUP3 SWAP2 SWAP1 DUP1 PUSH8 0xFFFFFFFFFFFFFFFF DUP2 GT ISZERO PUSH2 0x316 JUMPI PUSH2 0x316 PUSH2 0x773 JUMP JUMPDEST PUSH1 0x40 MLOAD SWAP1 DUP1 DUP3 MSTORE DUP1 PUSH1 0x20 MUL PUSH1 0x20 ADD DUP3 ADD PUSH1 0x40 MSTORE DUP1 ISZERO PUSH2 0x33F JUMPI DUP2 PUSH1 0x20 ADD PUSH1 0x20 DUP3 MUL DUP1 CALLDATASIZE DUP4 CALLDATACOPY ADD SWAP1 POP JUMPDEST POP SWAP5 POP DUP1 PUSH8 0xFFFFFFFFFFFFFFFF DUP2 GT ISZERO PUSH2 0x35B JUMPI PUSH2 0x35B PUSH2 0x773 JUMP JUMPDEST PUSH1 0x40 MLOAD SWAP1 DUP1 DUP3 MSTORE DUP1 PUSH1 0x20 MUL PUSH1 0x20 ADD DUP3 ADD PUSH1 0x40 MSTORE DUP1 ISZERO PUSH2 0x384 JUMPI DUP2 PUSH1 0x20 ADD PUSH1 0x20 DUP3 MUL DUP1 CALLDATASIZE DUP4 CALLDATACOPY ADD SWAP1 POP JUMPDEST POP SWAP4 POP DUP1 PUSH8 0xFFFFFFFFFFFFFFFF DUP2 GT ISZERO PUSH2 0x3A0 JUMPI PUSH2 0x3A0 PUSH2 0x773 JUMP JUMPDEST PUSH1 0x40 MLOAD SWAP1 DUP1 DUP3 MSTORE DUP1 PUSH1 0x20 MUL PUSH1 0x20 ADD DUP3 ADD PUSH1 0x40 MSTORE DUP1 ISZERO PUSH2 0x3C9 JUMPI DUP2 PUSH1 0x20 ADD PUSH1 0x20 DUP3 MUL DUP1 CALLDATASIZE DUP4 CALLDATACOPY ADD SWAP1 POP JUMPDEST POP SWAP3 POP PUSH1 0x0 JUMPDEST DUP2 DUP2 LT ISZERO PUSH2 0x48D JUMPI PUSH1 0x0 DUP4 DUP3 DUP2 SLOAD DUP2 LT PUSH2 0x3EB JUMPI PUSH2 0x3EB PUSH2 0x789 JUMP JUMPDEST PUSH1 0x0 SWAP2 DUP3 MSTORE PUSH1 0x20 DUP1 DUP4 KECCAK256 SWAP1 SWAP2 ADD SLOAD PUSH1 0x1 PUSH1 0x1 PUSH1 0xA0 SHL SUB NOT DUP12 AND DUP4 MSTORE PUSH1 0x2 DUP3 MSTORE PUSH1 0x40 DUP1 DUP5 KECCAK256 DUP3 DUP6 MSTORE SWAP1 SWAP3 MSTORE SWAP2 KECCAK256 DUP1 SLOAD DUP10 MLOAD SWAP3 SWAP4 POP SWAP1 SWAP2 DUP10 SWAP1 DUP6 SWAP1 DUP2 LT PUSH2 0x432 JUMPI PUSH2 0x432 PUSH2 0x789 JUMP JUMPDEST PUSH1 0x20 MUL PUSH1 0x20 ADD ADD DUP2 DUP2 MSTORE POP POP DUP1 PUSH1 0x1 ADD SLOAD DUP8 DUP5 DUP2 MLOAD DUP2 LT PUSH2 0x455 JUMPI PUSH2 0x455 PUSH2 0x789 JUMP JUMPDEST PUSH1 0x20 MUL PUSH1 0x20 ADD ADD DUP2 DUP2 MSTORE POP POP DUP1 PUSH1 0x2 ADD SLOAD DUP7 DUP5 DUP2 MLOAD DUP2 LT PUSH2 0x478 JUMPI PUSH2 0x478 PUSH2 0x789 JUMP JUMPDEST PUSH1 0x20 SWAP1 DUP2 MUL SWAP2 SWAP1 SWAP2 ADD ADD MSTORE POP POP PUSH1 0x1 ADD PUSH2 0x3CF JUMP JUMPDEST POP POP POP SWAP2 SWAP4 SWAP1 SWAP3 POP JUMP JUMPDEST PUSH1 0x1 PUSH1 0x1 PUSH1 0xA0 SHL SUB NOT DUP5 AND PUSH1 0x0 SWAP1 DUP2 MSTORE PUSH1 0x2 PUSH1 0x20 SWAP1 DUP2 MSTORE PUSH1 0x40 DUP1 DUP4 KECCAK256 DUP5 DUP5 MSTORE SWAP1 SWAP2 MSTORE DUP2 KECCAK256 SLOAD SWAP1 SUB PUSH2 0x4EF JUMPI PUSH1 0x1 PUSH1 0x1 PUSH1 0xA0 SHL SUB NOT DUP5 AND PUSH1 0x0 SWAP1 DUP2 MSTORE PUSH1 0x3 PUSH1 0x20 SWAP1 DUP2 MSTORE PUSH1 0x40 DUP3 KECCAK256 DUP1 SLOAD PUSH1 0x1 DUP2 ADD DUP3 SSTORE SWAP1 DUP4 MSTORE SWAP2 KECCAK256 ADD DUP2 SWAP1 SSTORE JUMPDEST PUSH1 0x40 DUP1 MLOAD PUSH1 0x60 DUP1 DUP3 ADD DUP4 MSTORE DUP6 DUP3 MSTORE PUSH1 0x20 DUP1 DUP4 ADD DUP7 DUP2 MSTORE DUP4 DUP6 ADD DUP7 DUP2 MSTORE PUSH1 0x1 PUSH1 0x1 PUSH1 0xA0 SHL SUB NOT DUP11 AND PUSH1 0x0 DUP2 DUP2 MSTORE PUSH1 0x2 DUP1 DUP7 MSTORE DUP9 DUP3 KECCAK256 DUP11 DUP4 MSTORE DUP7 MSTORE SWAP1 DUP9 SWAP1 KECCAK256 SWAP7 MLOAD DUP8 SSTORE SWAP3 MLOAD PUSH1 0x1 DUP8 ADD SSTORE SWAP1 MLOAD SWAP5 SWAP1 SWAP2 ADD SWAP4 SWAP1 SWAP4 SSTORE DUP4 MLOAD DUP8 DUP2 MSTORE SWAP1 DUP2 ADD DUP7 SWAP1 MSTORE SWAP3 DUP4 ADD DUP5 SWAP1 MSTORE SWAP1 SWAP2 PUSH32 0xAEA086B6870EFE42CE9C82F2AE6FEBF4E641FD48F7FC1967F5C74AEBF5A34825 SWAP2 ADD PUSH1 0x40 MLOAD DUP1 SWAP2 SUB SWAP1 LOG2 POP POP POP POP JUMP JUMPDEST PUSH1 0x40 DUP1 MLOAD DUP1 DUP3 ADD DUP3 MSTORE DUP4 DUP2 MSTORE PUSH1 0x20 DUP1 DUP3 ADD DUP5 DUP2 MSTORE PUSH1 0x1 PUSH1 0x1 PUSH1 0xA0 SHL SUB NOT DUP8 AND PUSH1 0x0 DUP2 DUP2 MSTORE PUSH1 0x1 DUP1 DUP6 MSTORE SWAP1 DUP7 SWAP1 KECCAK256 SWAP5 MLOAD DUP6 SSTORE SWAP2 MLOAD SWAP4 SWAP1 SWAP2 ADD SWAP3 SWAP1 SWAP3 SSTORE DUP3 MLOAD DUP6 DUP2 MSTORE SWAP1 DUP2 ADD DUP5 SWAP1 MSTORE SWAP1 SWAP2 PUSH32 0xDE9EE63512B36BDD186DD245F28EC7129C70EEB0849D262F3F1B33BA93138D5D SWAP2 ADD PUSH2 0x2CD JUMP JUMPDEST DUP1 CALLDATALOAD PUSH1 0x1 PUSH1 0x1 PUSH1 0xA0 SHL SUB NOT DUP2 AND DUP2 EQ PUSH2 0x60D JUMPI PUSH1 0x0 DUP1 REVERT JUMPDEST SWAP2 SWAP1 POP JUMP JUMPDEST PUSH1 0x0 PUSH1 0x20 DUP3 DUP5 SUB SLT ISZERO PUSH2 0x624 JUMPI PUSH1 0x0 DUP1 REVERT JUMPDEST PUSH2 0x62D DUP3 PUSH2 0x5F5 JUMP JUMPDEST SWAP4 SWAP3 POP POP POP JUMP JUMPDEST PUSH1 0x0 DUP1 PUSH1 0x0 PUSH1 0x60 DUP5 DUP7 SUB SLT ISZERO PUSH2 0x649 JUMPI PUSH1 0x0 DUP1 REVERT JUMPDEST PUSH2 0x652 DUP5 PUSH2 0x5F5 JUMP JUMPDEST SWAP6 PUSH1 0x20 DUP6 ADD CALLDATALOAD SWAP6 POP PUSH1 0x40 SWAP1 SWAP5 ADD CALLDATALOAD SWAP4 SWAP3 POP POP POP JUMP JUMPDEST PUSH1 0x0 DUP2 MLOAD DUP1 DUP5 MSTORE PUSH1 0x20 DUP5 ADD SWAP4 POP PUSH1 0x20 DUP4 ADD PUSH1 0x0 JUMPDEST DUP3 DUP2 LT ISZERO PUSH2 0x699 JUMPI DUP2 MLOAD DUP7 MSTORE PUSH1 0x20 SWAP6 DUP7 ADD SWAP6 SWAP1 SWAP2 ADD SWAP1 PUSH1 0x1 ADD PUSH2 0x67B JUMP JUMPDEST POP SWAP4 SWAP5 SWAP4 POP POP POP POP JUMP JUMPDEST PUSH1 0x60 DUP2 MSTORE PUSH1 0x0 PUSH2 0x6B6 PUSH1 0x60 DUP4 ADD DUP7 PUSH2 0x667 JUMP JUMPDEST DUP3 DUP2 SUB PUSH1 0x20 DUP5 ADD MSTORE DUP1 DUP6 MLOAD DUP1 DUP4 MSTORE PUSH1 0x20 DUP4 ADD SWAP2 POP PUSH1 0x20 DUP8 ADD SWAP3 POP PUSH1 0x0 JUMPDEST DUP2 DUP2 LT ISZERO PUSH2 0x6F1 JUMPI DUP4 MLOAD DUP4 MSTORE PUSH1 0x20 SWAP4 DUP5 ADD SWAP4 SWAP1 SWAP3 ADD SWAP2 PUSH1 0x1 ADD PUSH2 0x6D3 JUMP JUMPDEST POP POP DUP4 DUP2 SUB PUSH1 0x40 DUP6 ADD MSTORE PUSH2 0x705 DUP2 DUP7 PUSH2 0x667 JUMP JUMPDEST SWAP8 SWAP7 POP POP POP POP POP POP POP JUMP JUMPDEST PUSH1 0x0 DUP1 PUSH1 0x0 DUP1 PUSH1 0x80 DUP6 DUP8 SUB SLT ISZERO PUSH2 0x726 JUMPI PUSH1 0x0 DUP1 REVERT JUMPDEST PUSH2 0x72F DUP6 PUSH2 0x5F5 JUMP JUMPDEST SWAP7 PUSH1 0x20 DUP7 ADD CALLDATALOAD SWAP7 POP PUSH1 0x40 DUP7 ADD CALLDATALOAD SWAP6 PUSH1 0x60 ADD CALLDATALOAD SWAP5 POP SWAP3 POP POP POP JUMP JUMPDEST PUSH1 0x0 DUP1 PUSH1 0x40 DUP4 DUP6 SUB SLT ISZERO PUSH2 0x75C JUMPI PUSH1 0x0 DUP1 REVERT JUMPDEST PUSH2 0x765 DUP4 PUSH2 0x5F5 JUMP JUMPDEST SWAP5 PUSH1 0x20 SWAP4 SWAP1 SWAP4 ADD CALLDATALOAD SWAP4 POP POP POP JUMP JUMPDEST PUSH4 0x4E487B71 PUSH1 0xE0 SHL PUSH1 0x0 MSTORE PUSH1 0x41 PUSH1 0x4 MSTORE PUSH1 0x24 PUSH1 0x0 REVERT JUMPDEST PUSH4 0x4E487B71 PUSH1 0xE0 SHL PUSH1 0x0 MSTORE PUSH1 0x32 PUSH1 0x4 MSTORE PUSH1 0x24 PUSH1 0x0 REVERT INVALID LOG2 PUSH5 0x6970667358 0x22 SLT KECCAK256 SWAP1 CREATE PUSH14 0x4587A3D5BE8D77BFD34F53558F5D 0x2D 0xAE PUSH5 0x8CD12ED7A6 SELFDESTRUCT MUL 0xA5 LOG1 LT 0xA9 MLOAD PUSH5 0x736F6C6343 STOP ADDMOD SHR STOP CALLER "},"methodIdentifiers":{"dynamicRecords(bytes12)":"9af6a7b6","getDynamicHash(bytes12)":"1e542dbe","getMasterHash(bytes12)":"a078b38e","getVersionHash(bytes12,uint256)":"e7b49329","getVersionHashes(bytes12)":"2eb3b8bf","records(bytes12)":"1924c8ad","storeDynamicHash(bytes12,uint256,bytes32)":"e62eb184","storeMasterHash(bytes12,uint256,bytes32)":"2724516f","storeVersionHash(bytes12,uint256,bytes32,uint256)":"53cba4a2","versionRecords(bytes12,uint256)":"f9cdc0fc"}}}}}