{"contracts/contrato.sol":{"Contrato":{"abi":[{"anonymous":false,"inputs":[{"indexed":true,"internalType":"bytes12","name":"oid","type":"bytes12"},{"indexed":false,"internalType":"uint256","name":"timestamp","type":"uint256"},{"indexed":false,"internalType":"bytes32","name":"dataHash","type":"bytes32"}],"name":"DataHashStored","type":"event"},{"inputs":[{"internalType":"bytes12","name":"oid","type":"bytes12"}],"name":"getHash","outputs":[{"internalType":"uint256","name":"timestamp","type":"uint256"},{"internalType":"bytes32","name":"dataHash","type":"bytes32"}],"stateMutability":"view","type":"function"},{"inputs":[{"internalType":"bytes12","name":"","type":"bytes12"}],"name":"records","outputs":[{"internalType":"uint256","name":"timestamp","type":"uint256"},{"internalType":"bytes32","name":"dataHash","type":"bytes32"}],"stateMutability":"view","type":"function"},{"inputs":[{"internalType":"bytes12","name":"oid","type":"bytes12"},{"internalType":"uint256","name":"timestamp","type":"uint256"},{"internalType":"bytes32","name":"dataHash","type":"bytes32"}],"name":"storeHash","outputs":[],"stateMutability":"nonpayable","type":"function"}],"evm":{"bytecode":{"linkReferences":{},"object":"6080604052348015600f57600080fd5b506101eb8061001f6000396000f3fe608060405234801561001057600080fd5b50600436106100415760003560e01c80630d6e1f19146100465780631924c8ad14610091578063676223f7146100b8575b600080fd5b610078610054366004610160565b6001600160a01b031916600090815260208190526040902080546001909101549091565b6040805192835260208301919091520160405180910390f35b61007861009f366004610160565b6000602081905290815260409020805460019091015482565b6100cb6100c6366004610182565b6100cd565b005b60408051808201825283815260208082018481526001600160a01b031987166000818152808452859020935184559051600190930192909255825185815290810184905290917f2f521e3d1c0ed1bca7fbe31106be0356f2247084c352b18408c9a1453edc5c58910160405180910390a2505050565b80356001600160a01b03198116811461015b57600080fd5b919050565b60006020828403121561017257600080fd5b61017b82610143565b9392505050565b60008060006060848603121561019757600080fd5b6101a084610143565b9560208501359550604090940135939250505056fea26469706673582212204d5302c00d91dfee7b70b0ecd8fff5056744bbad3551e7a418575d34c08b0e7564736f6c634300081c0033","opcodes":"PUSH1 0x80 PUSH1 0x40 MSTORE CALLVALUE DUP1 ISZERO PUSH1 0xF JUMPI PUSH1 0x0 DUP1 REVERT JUMPDEST POP PUSH2 0x1EB DUP1 PUSH2 0x1F PUSH1 0x0 CODECOPY PUSH1 0x0 RETURN INVALID PUSH1 0x80 PUSH1 0x40 MSTORE CALLVALUE DUP1 ISZERO PUSH2 0x10 JUMPI PUSH1 0x0 DUP1 REVERT JUMPDEST POP PUSH1 0x4 CALLDATASIZE LT PUSH2 0x41 JUMPI PUSH1 0x0 CALLDATALOAD PUSH1 0xE0 SHR DUP1 PUSH4 0xD6E1F19 EQ PUSH2 0x46 JUMPI DUP1 PUSH4 0x1924C8AD EQ PUSH2 0x91 JUMPI DUP1 PUSH4 0x676223F7 EQ PUSH2 0xB8 JUMPI JUMPDEST PUSH1 0x0 DUP1 REVERT JUMPDEST PUSH2 0x78 PUSH2 0x54 CALLDATASIZE PUSH1 0x4 PUSH2 0x160 JUMP JUMPDEST PUSH1 0x1 PUSH1 0x1 PUSH1 0xA0 SHL SUB NOT AND PUSH1 0x0 SWAP1 DUP2 MSTORE PUSH1 0x20 DUP2 SWAP1 MSTORE PUSH1 0x40 SWAP1 KECCAK256 DUP1 SLOAD PUSH1 0x1 SWAP1 SWAP2 ADD SLOAD SWAP1 SWAP2 JUMP JUMPDEST PUSH1 0x40 DUP1 MLOAD SWAP3 DUP4 MSTORE PUSH1 0x20 DUP4 ADD SWAP2 SWAP1 SWAP2 MSTORE ADD PUSH1 0x40 MLOAD DUP1 SWAP2 SUB SWAP1 RETURN JUMPDEST PUSH2 0x78 PUSH2 0x9F CALLDATASIZE PUSH1 0x4 PUSH2 0x160 JUMP JUMPDEST PUSH1 0x0 PUSH1 0x20 DUP2 SWAP1 MSTORE SWAP1 DUP2 MSTORE PUSH1 0x40 SWAP1 KECCAK256 DUP1 SLOAD PUSH1 0x1 SWAP1 SWAP2 ADD SLOAD DUP3 JUMP JUMPDEST PUSH2 0xCB PUSH2 0xC6 CALLDATASIZE PUSH1 0x4 PUSH2 0x182 JUMP JUMPDEST PUSH2 0xCD JUMP JUMPDEST STOP JUMPDEST PUSH1 0x40 DUP1 MLOAD DUP1 DUP3 ADD DUP3 MSTORE DUP4 DUP2 MSTORE PUSH1 0x20 DUP1 DUP3 ADD DUP5 DUP2 MSTORE PUSH1 0x1 PUSH1 0x1 PUSH1 0xA0 SHL SUB NOT DUP8 AND PUSH1 0x0 DUP2 DUP2 MSTORE DUP1 DUP5 MSTORE DUP6 SWAP1 KECCAK256 SWAP4 MLOAD DUP5 SSTORE SWAP1 MLOAD PUSH1 0x1 SWAP1 SWAP4 ADD SWAP3 SWAP1 SWAP3 SSTORE DUP3 MLOAD DUP6 DUP2 MSTORE SWAP1 DUP2 ADD DUP5 SWAP1 MSTORE SWAP1 SWAP2 PUSH32 0x2F521E3D1C0ED1BCA7FBE31106BE0356F2247084C352B18408C9A1453EDC5C58 SWAP2 ADD PUSH1 0x40 MLOAD DUP1 SWAP2 SUB SWAP1 LOG2 POP POP POP JUMP JUMPDEST DUP1 CALLDATALOAD PUSH1 0x1 PUSH1 0x1 PUSH1 0xA0 SHL SUB NOT DUP2 AND DUP2 EQ PUSH2 0x15B JUMPI PUSH1 0x0 DUP1 REVERT JUMPDEST SWAP2 SWAP1 POP JUMP JUMPDEST PUSH1 0x0 PUSH1 0x20 DUP3 DUP5 SUB SLT ISZERO PUSH2 0x172 JUMPI PUSH1 0x0 DUP1 REVERT JUMPDEST PUSH2 0x17B DUP3 PUSH2 0x143 JUMP JUMPDEST SWAP4 SWAP3 POP POP POP JUMP JUMPDEST PUSH1 0x0 DUP1 PUSH1 0x0 PUSH1 0x60 DUP5 DUP7 SUB SLT ISZERO PUSH2 0x197 JUMPI PUSH1 0x0 DUP1 REVERT JUMPDEST PUSH2 0x1A0 DUP5 PUSH2 0x143 JUMP JUMPDEST SWAP6 PUSH1 0x20 DUP6 ADD CALLDATALOAD SWAP6 POP PUSH1 0x40 SWAP1 SWAP5 ADD CALLDATALOAD SWAP4 SWAP3 POP POP POP JUMP INVALID LOG2 PUSH5 0x6970667358 0x22 SLT KECCAK256 0x4D MSTORE8 MUL 0xC0 0xD SWAP2 0xDF 0xEE PUSH28 0x70B0ECD8FFF5056744BBAD3551E7A418575D34C08B0E7564736F6C63 NUMBER STOP ADDMOD SHR STOP CALLER "},"methodIdentifiers":{"getHash(bytes12)":"0d6e1f19","records(bytes12)":"1924c8ad","storeHash(bytes12,uint256,bytes32)":"676223f7"}}}}}