{"contracts/contrato.sol":{"Contrato":{"abi":[{"anonymous":false,"inputs":[{"indexed":true,"internalType":"bytes12","name":"oid","type":"bytes12"},{"indexed":false,"internalType":"uint256","name":"timestamp","type":"uint256"},{"indexed":false,"internalType":"bytes32","name":"dynamicHash","type":"bytes32"}],"name":"DynamicHashStored","type":"event"},{"anonymous":false,"inputs":[{"indexed":true,"internalType":"bytes12","name":"oid","type":"bytes12"},{"indexed":false,"internalType":"uint256","name":"timestamp","type":"uint256"},{"indexed":false,"internalType":"bytes32","name":"masterHash","type":"bytes32"}],"name":"MasterHashStored","type":"event"},{"anonymous":false,"inputs":[{"indexed":true,"internalType":"bytes12","name":"oid","type":"bytes12"},{"indexed":false,"internalType":"uint256","name":"timestamp","type":"uint256"},{"indexed":false,"internalType":"bytes32","name":"versionHash","type":"bytes32"}],"name":"VersionHashStored","type":"event"},{"inputs":[{"internalType":"bytes12","name":"","type":"bytes12"}],"name":"dynamicRecords","outputs":[{"internalType":"uint256","name":"timestamp","type":"uint256"},{"internalType":"bytes32","name":"dynamicHash","type":"bytes32"}],"stateMutability":"view","type":"function"},{"inputs":[{"internalType":"bytes12","name":"oid","type":"bytes12"}],"name":"getDynamicHash","outputs":[{"internalType":"uint256","name":"timestamp","type":"uint256"},{"internalType":"bytes32","name":"dataHash","type":"bytes32"}],"stateMutability":"view","type":"function"},{"inputs":[{"internalType":"bytes12","name":"oid","type":"bytes12"}],"name":"getMasterHash","outputs":[{"internalType":"uint256","name":"timestamp","type":"uint256"},{"internalType":"bytes32","name":"dataHash","type":"bytes32"}],"stateMutability":"view","type":"function"},{"inputs":[{"internalType":"bytes12","name":"oid","type":"bytes12"},{"internalType":"uint256","name":"versionIndex","type":"uint256"}],"name":"getVersionHash","outputs":[{"internalType":"uint256","name":"timestamp","type":"uint256"},{"internalType":"bytes32","name":"versionHash","type":"bytes32"}],"stateMutability":"view","type":"function"},{"inputs":[{"internalType":"bytes12","name":"oid","type":"bytes12"}],"name":"getVersionHashes","outputs":[{"internalType":"uint256[]","name":"timestamps","type":"uint256[]"},{"internalType":"bytes32[]","name":"versionHashes","type":"bytes32[]"}],"stateMutability":"view","type":"function"},{"inputs":[{"internalType":"bytes12","name":"","type":"bytes12"}],"name":"records","outputs":[{"internalType":"uint256","name":"timestamp","type":"uint256"},{"internalType":"bytes32","name":"masterHash","type":"bytes32"}],"stateMutability":"view","type":"function"},{"inputs":[{"internalType":"bytes12","name":"oid","type":"bytes12"},{"internalType":"uint256","name":"timestamp","type":"uint256"},{"internalType":"bytes32","name":"dynamicHash","type":"bytes32"}],"name":"storeDynamicHash","outputs":[],"stateMutability":"nonpayable","type":"function"},{"inputs":[{"internalType":"bytes12","name":"oid","type":"bytes12"},{"internalType":"uint256","name":"timestamp","type":"uint256"},{"internalType":"bytes32","name":"masterHash","type":"bytes32"}],"name":"storeMasterHash","outputs":[],"stateMutability":"nonpayable","type":"function"},{"inputs":[{"internalType":"bytes12","name":"oid","type":"bytes12"},{"internalType":"uint256","name":"timestamp","type":"uint256"},{"internalType":"bytes32","name":"versionHash","type":"bytes32"}],"name":"storeVersionHash","outputs":[],"stateMutability":"nonpayable","type":"function"},{"inputs":[{"internalType":"bytes12","name":"","type":"bytes12"},{"internalType":"uint256","name":"","type":"uint256"}],"name":"versionRecords","outputs":[{"internalType":"uint256","name":"timestamp","type":"uint256"},{"internalType":"bytes32","name":"versionHash","type":"bytes32"}],"stateMutability":"view","type":"function"}],"evm":{"bytecode":{"linkReferences":{},"object":"6080604052348015600f57600080fd5b5061070a8061001f6000396000f3fe608060405234801561001057600080fd5b506004361061009e5760003560e01c80639af6a7b6116100665780639af6a7b61461015f578063a078b38e14610186578063e62eb184146101b8578063e7b49329146101cb578063f9cdc0fc146101de57600080fd5b80631924c8ad146100a35780631e542dbe146100e45780632724516f146101165780632eb3b8bf1461012b5780633ce2cf591461014c575b600080fd5b6100ca6100b13660046105a7565b6000602081905290815260409020805460019091015482565b604080519283526020830191909152015b60405180910390f35b6100ca6100f23660046105a7565b6001600160a01b031916600090815260016020819052604090912080549101549091565b6101296101243660046105c9565b6101f1565b005b61013e6101393660046105a7565b610268565b6040516100db9291906105fc565b61012961015a3660046105c9565b6103b0565b6100ca61016d3660046105a7565b6001602081905260009182526040909120805491015482565b6100ca6101943660046105a7565b6001600160a01b031916600090815260208190526040902080546001909101549091565b6101296101c63660046105c9565b610433565b6100ca6101d936600461067e565b6104a3565b6100ca6101ec36600461067e565b61054e565b60408051808201825283815260208082018481526001600160a01b031987166000818152808452859020935184559051600190930192909255825185815290810184905290917f5f35067f386968f4fac5760cf309d18f16025a16cb7d23b1272f6afb3cf2c14991015b60405180910390a2505050565b6001600160a01b031981166000908152600260205260409020805460609182918067ffffffffffffffff8111156102a1576102a16106a8565b6040519080825280602002602001820160405280156102ca578160200160208202803683370190505b5093508067ffffffffffffffff8111156102e6576102e66106a8565b60405190808252806020026020018201604052801561030f578160200160208202803683370190505b50925060005b818110156103a85782818154811061032f5761032f6106be565b906000526020600020906002020160000154858281518110610353576103536106be565b602002602001018181525050828181548110610371576103716106be565b906000526020600020906002020160010154848281518110610395576103956106be565b6020908102919091010152600101610315565b505050915091565b6001600160a01b0319831660008181526002602081815260408084208151808301835288815280840188815282546001808201855593885296859020915196909502019485559251939092019290925580518581529182018490527fe782b4225808eb3714b9926669526390bccba580056f1a3d65b7ee3568ef97fb910161025b565b60408051808201825283815260208082018481526001600160a01b0319871660008181526001808552908690209451855591519390910192909255825185815290810184905290917fde9ee63512b36bdd186dd245f28ec7129c70eeb0849d262f3f1b33ba93138d5d910161025b565b6001600160a01b031982166000908152600260205260408120805482919084106105135760405162461bcd60e51b815260206004820152601b60248201527f56657273696f6e20696e646578206f7574206f6620626f756e64730000000000604482015260640160405180910390fd5b6000818581548110610527576105276106be565b90600052602060002090600202019050806000015481600101549350935050509250929050565b6002602052816000526040600020818154811061056a57600080fd5b600091825260209091206002909102018054600190910154909250905082565b80356001600160a01b0319811681146105a257600080fd5b919050565b6000602082840312156105b957600080fd5b6105c28261058a565b9392505050565b6000806000606084860312156105de57600080fd5b6105e78461058a565b95602085013595506040909401359392505050565b6040808252835190820181905260009060208501906060840190835b81811015610636578351835260209384019390920191600101610618565b50508381036020808601919091528551808352918101925085019060005b81811015610672578251845260209384019390920191600101610654565b50919695505050505050565b6000806040838503121561069157600080fd5b61069a8361058a565b946020939093013593505050565b634e487b7160e01b600052604160045260246000fd5b634e487b7160e01b600052603260045260246000fdfea26469706673582212209c3a60b2cca0f60a0980d29452734aecbcf7db79f2a50ba0d47afc102664e9d164736f6c634300081c0033","opcodes":"PUSH1 0x80 PUSH1 0x40 MSTORE CALLVALUE DUP1 ISZERO PUSH1 0xF JUMPI PUSH1 0x0 DUP1 REVERT JUMPDEST POP PUSH2 0x70A DUP1 PUSH2 0x1F PUSH1 0x0 CODECOPY PUSH1 0x0 RETURN INVALID PUSH1 0x80 PUSH1 0x40 MSTORE CALLVALUE DUP1 ISZERO PUSH2 0x10 JUMPI PUSH1 0x0 DUP1 REVERT JUMPDEST POP PUSH1 0x4 CALLDATASIZE LT PUSH2 0x9E JUMPI PUSH1 0x0 CALLDATALOAD PUSH1 0xE0 SHR DUP1 PUSH4 0x9AF6A7B6 GT PUSH2 0x66 JUMPI DUP1 PUSH4 0x9AF6A7B6 EQ PUSH2 0x15F JUMPI DUP1 PUSH4 0xA078B38E EQ PUSH2 0x186 JUMPI DUP1 PUSH4 0xE62EB184 EQ PUSH2 0x1B8 JUMPI DUP1 PUSH4 0xE7B49329 EQ PUSH2 0x1CB JUMPI DUP1 PUSH4 0xF9CDC0FC EQ PUSH2 0x1DE JUMPI PUSH1 0x0 DUP1 REVERT JUMPDEST DUP1 PUSH4 0x1924C8AD EQ PUSH2 0xA3 JUMPI DUP1 PUSH4 0x1E542DBE EQ PUSH2 0xE4 JUMPI DUP1 PUSH4 0x2724516F EQ PUSH2 0x116 JUMPI DUP1 PUSH4 0x2EB3B8BF EQ PUSH2 0x12B JUMPI DUP1 PUSH4 0x3CE2CF59 EQ PUSH2 0x14C JUMPI JUMPDEST PUSH1 0x0 DUP1 REVERT JUMPDEST PUSH2 0xCA PUSH2 0xB1 CALLDATASIZE PUSH1 0x4 PUSH2 0x5A7 JUMP JUMPDEST PUSH1 0x0 PUSH1 0x20 DUP2 SWAP1 MSTORE SWAP1 DUP2 MSTORE PUSH1 0x40 SWAP1 KECCAK256 DUP1 SLOAD PUSH1 0x1 SWAP1 SWAP2 ADD SLOAD DUP3 JUMP JUMPDEST PUSH1 0x40 DUP1 MLOAD SWAP3 DUP4 MSTORE PUSH1 0x20 DUP4 ADD SWAP2 SWAP1 SWAP2 MSTORE ADD JUMPDEST PUSH1 0x40 MLOAD DUP1 SWAP2 SUB SWAP1 RETURN JUMPDEST PUSH2 0xCA PUSH2 0xF2 CALLDATASIZE PUSH1 0x4 PUSH2 0x5A7 JUMP JUMPDEST PUSH1 0x1 PUSH1 0x1 PUSH1 0xA0 SHL SUB NOT AND PUSH1 0x0 SWAP1 DUP2 MSTORE PUSH1 0x1 PUSH1 0x20 DUP2 SWAP1 MSTORE PUSH1 0x40 SWAP1 SWAP2 KECCAK256 DUP1 SLOAD SWAP2 ADD SLOAD SWAP1 SWAP2 JUMP JUMPDEST PUSH2 0x129 PUSH2 0x124 CALLDATASIZE PUSH1 0x4 PUSH2 0x5C9 JUMP JUMPDEST PUSH2 0x1F1 JUMP JUMPDEST STOP JUMPDEST PUSH2 0x13E PUSH2 0x139 CALLDATASIZE PUSH1 0x4 PUSH2 0x5A7 JUMP JUMPDEST PUSH2 0x268 JUMP JUMPDEST PUSH1 0x40 MLOAD PUSH2 0xDB SWAP3 SWAP2 SWAP1 PUSH2 0x5FC JUMP JUMPDEST PUSH2 0x129 PUSH2 0x15A CALLDATASIZE PUSH1 0x4 PUSH2 0x5C9 JUMP JUMPDEST PUSH2 0x3B0 JUMP JUMPDEST PUSH2 0xCA PUSH2 0x16D CALLDATASIZE PUSH1 0x4 PUSH2 0x5A7 JUMP JUMPDEST PUSH1 0x1 PUSH1 0x20 DUP2 SWAP1 MSTORE PUSH1 0x0 SWAP2 DUP3 MSTORE PUSH1 0x40 SWAP1 SWAP2 KECCAK256 DUP1 SLOAD SWAP2 ADD SLOAD DUP3 JUMP JUMPDEST PUSH2 0xCA PUSH2 0x194 CALLDATASIZE PUSH1 0x4 PUSH2 0x5A7 JUMP JUMPDEST PUSH1 0x1 PUSH1 0x1 PUSH1 0xA0 SHL SUB NOT AND PUSH1 0x0 SWAP1 DUP2 MSTORE PUSH1 0x20 DUP2 SWAP1 MSTORE PUSH1 0x40 SWAP1 KECCAK256 DUP1 SLOAD PUSH1 0x1 SWAP1 SWAP2 ADD SLOAD SWAP1 SWAP2 JUMP JUMPDEST PUSH2 0x129 PUSH2 0x1C6 CALLDATASIZE PUSH1 0x4 PUSH2 0x5C9 JUMP JUMPDEST PUSH2 0x433 JUMP JUMPDEST PUSH2 0xCA PUSH2 0x1D9 CALLDATASIZE PUSH1 0x4 PUSH2 0x67E JUMP JUMPDEST PUSH2 0x4A3 JUMP JUMPDEST PUSH2 0xCA PUSH2 0x1EC CALLDATASIZE PUSH1 0x4 PUSH2 0x67E JUMP JUMPDEST PUSH2 0x54E JUMP JUMPDEST PUSH1 0x40 DUP1 MLOAD DUP1 DUP3 ADD DUP3 MSTORE DUP4 DUP2 MSTORE PUSH1 0x20 DUP1 DUP3 ADD DUP5 DUP2 MSTORE PUSH1 0x1 PUSH1 0x1 PUSH1 0xA0 SHL SUB NOT DUP8 AND PUSH1 0x0 DUP2 DUP2 MSTORE DUP1 DUP5 MSTORE DUP6 SWAP1 KECCAK256 SWAP4 MLOAD DUP5 SSTORE SWAP1 MLOAD PUSH1 0x1 SWAP1 SWAP4 ADD SWAP3 SWAP1 SWAP3 SSTORE DUP3 MLOAD DUP6 DUP2 MSTORE SWAP1 DUP2 ADD DUP5 SWAP1 MSTORE SWAP1 SWAP2 PUSH32 0x5F35067F386968F4FAC5760CF309D18F16025A16CB7D23B1272F6AFB3CF2C149 SWAP2 ADD JUMPDEST PUSH1 0x40 MLOAD DUP1 SWAP2 SUB SWAP1 LOG2 POP POP POP JUMP JUMPDEST PUSH1 0x1 PUSH1 0x1 PUSH1 0xA0 SHL SUB NOT DUP2 AND PUSH1 0x0 SWAP1 DUP2 MSTORE PUSH1 0x2 PUSH1 0x20 MSTORE PUSH1 0x40 SWAP1 KECCAK256 DUP1 SLOAD PUSH1 0x60 SWAP2 DUP3 SWAP2 DUP1 PUSH8 0xFFFFFFFFFFFFFFFF DUP2 GT ISZERO PUSH2 0x2A1 JUMPI PUSH2 0x2A1 PUSH2 0x6A8 JUMP JUMPDEST PUSH1 0x40 MLOAD SWAP1 DUP1 DUP3 MSTORE DUP1 PUSH1 0x20 MUL PUSH1 0x20 ADD DUP3 ADD PUSH1 0x40 MSTORE DUP1 ISZERO PUSH2 0x2CA JUMPI DUP2 PUSH1 0x20 ADD PUSH1 0x20 DUP3 MUL DUP1 CALLDATASIZE DUP4 CALLDATACOPY ADD SWAP1 POP JUMPDEST POP SWAP4 POP DUP1 PUSH8 0xFFFFFFFFFFFFFFFF DUP2 GT ISZERO PUSH2 0x2E6 JUMPI PUSH2 0x2E6 PUSH2 0x6A8 JUMP JUMPDEST PUSH1 0x40 MLOAD SWAP1 DUP1 DUP3 MSTORE DUP1 PUSH1 0x20 MUL PUSH1 0x20 ADD DUP3 ADD PUSH1 0x40 MSTORE DUP1 ISZERO PUSH2 0x30F JUMPI DUP2 PUSH1 0x20 ADD PUSH1 0x20 DUP3 MUL DUP1 CALLDATASIZE DUP4 CALLDATACOPY ADD SWAP1 POP JUMPDEST POP SWAP3 POP PUSH1 0x0 JUMPDEST DUP2 DUP2 LT ISZERO PUSH2 0x3A8 JUMPI DUP3 DUP2 DUP2 SLOAD DUP2 LT PUSH2 0x32F JUMPI PUSH2 0x32F PUSH2 0x6BE JUMP JUMPDEST SWAP1 PUSH1 0x0 MSTORE PUSH1 0x20 PUSH1 0x0 KECCAK256 SWAP1 PUSH1 0x2 MUL ADD PUSH1 0x0 ADD SLOAD DUP6 DUP3 DUP2 MLOAD DUP2 LT PUSH2 0x353 JUMPI PUSH2 0x353 PUSH2 0x6BE JUMP JUMPDEST PUSH1 0x20 MUL PUSH1 0x20 ADD ADD DUP2 DUP2 MSTORE POP POP DUP3 DUP2 DUP2 SLOAD DUP2 LT PUSH2 0x371 JUMPI PUSH2 0x371 PUSH2 0x6BE JUMP JUMPDEST SWAP1 PUSH1 0x0 MSTORE PUSH1 0x20 PUSH1 0x0 KECCAK256 SWAP1 PUSH1 0x2 MUL ADD PUSH1 0x1 ADD SLOAD DUP5 DUP3 DUP2 MLOAD DUP2 LT PUSH2 0x395 JUMPI PUSH2 0x395 PUSH2 0x6BE JUMP JUMPDEST PUSH1 0x20 SWAP1 DUP2 MUL SWAP2 SWAP1 SWAP2 ADD ADD MSTORE PUSH1 0x1 ADD PUSH2 0x315 JUMP JUMPDEST POP POP POP SWAP2 POP SWAP2 JUMP JUMPDEST PUSH1 0x1 PUSH1 0x1 PUSH1 0xA0 SHL SUB NOT DUP4 AND PUSH1 0x0 DUP2 DUP2 MSTORE PUSH1 0x2 PUSH1 0x20 DUP2 DUP2 MSTORE PUSH1 0x40 DUP1 DUP5 KECCAK256 DUP2 MLOAD DUP1 DUP4 ADD DUP4 MSTORE DUP9 DUP2 MSTORE DUP1 DUP5 ADD DUP9 DUP2 MSTORE DUP3 SLOAD PUSH1 0x1 DUP1 DUP3 ADD DUP6 SSTORE SWAP4 DUP9 MSTORE SWAP7 DUP6 SWAP1 KECCAK256 SWAP2 MLOAD SWAP7 SWAP1 SWAP6 MUL ADD SWAP5 DUP6 SSTORE SWAP3 MLOAD SWAP4 SWAP1 SWAP3 ADD SWAP3 SWAP1 SWAP3 SSTORE DUP1 MLOAD DUP6 DUP2 MSTORE SWAP2 DUP3 ADD DUP5 SWAP1 MSTORE PUSH32 0xE782B4225808EB3714B9926669526390BCCBA580056F1A3D65B7EE3568EF97FB SWAP2 ADD PUSH2 0x25B JUMP JUMPDEST PUSH1 0x40 DUP1 MLOAD DUP1 DUP3 ADD DUP3 MSTORE DUP4 DUP2 MSTORE PUSH1 0x20 DUP1 DUP3 ADD DUP5 DUP2 MSTORE PUSH1 0x1 PUSH1 0x1 PUSH1 0xA0 SHL SUB NOT DUP8 AND PUSH1 0x0 DUP2 DUP2 MSTORE PUSH1 0x1 DUP1 DUP6 MSTORE SWAP1 DUP7 SWAP1 KECCAK256 SWAP5 MLOAD DUP6 SSTORE SWAP2 MLOAD SWAP4 SWAP1 SWAP2 ADD SWAP3 SWAP1 SWAP3 SSTORE DUP3 MLOAD DUP6 DUP2 MSTORE SWAP1 DUP2 ADD DUP5 SWAP1 MSTORE SWAP1 SWAP2 PUSH32 0xDE9EE63512B36BDD186DD245F28EC7129C70EEB0849D262F3F1B33BA93138D5D SWAP2 ADD PUSH2 0x25B JUMP JUMPDEST PUSH1 0x1 PUSH1 0x1 PUSH1 0xA0 SHL SUB NOT DUP3 AND PUSH1 0x0 SWAP1 DUP2 MSTORE PUSH1 0x2 PUSH1 0x20 MSTORE PUSH1 0x40 DUP2 KECCAK256 DUP1 SLOAD DUP3 SWAP2 SWAP1 DUP5 LT PUSH2 0x513 JUMPI PUSH1 0x40 MLOAD PUSH3 0x461BCD PUSH1 0xE5 SHL DUP2 MSTORE PUSH1 0x20 PUSH1 0x4 DUP3 ADD MSTORE PUSH1 0x1B PUSH1 0x24 DUP3 ADD MSTORE PUSH32 0x56657273696F6E20696E646578206F7574206F6620626F756E64730000000000 PUSH1 0x44 DUP3 ADD MSTORE PUSH1 0x64 ADD PUSH1 0x40 MLOAD DUP1 SWAP2 SUB SWAP1 REVERT JUMPDEST PUSH1 0x0 DUP2 DUP6 DUP2 SLOAD DUP2 LT PUSH2 0x527 JUMPI PUSH2 0x527 PUSH2 0x6BE JUMP JUMPDEST SWAP1 PUSH1 0x0 MSTORE PUSH1 0x20 PUSH1 0x0 KECCAK256 SWAP1 PUSH1 0x2 MUL ADD SWAP1 POP DUP1 PUSH1 0x0 ADD SLOAD DUP2 PUSH1 0x1 ADD SLOAD SWAP4 POP SWAP4 POP POP POP SWAP3 POP SWAP3 SWAP1 POP JUMP JUMPDEST PUSH1 0x2 PUSH1 0x20 MSTORE DUP2 PUSH1 0x0 MSTORE PUSH1 0x40 PUSH1 0x0 KECCAK256 DUP2 DUP2 SLOAD DUP2 LT PUSH2 0x56A JUMPI PUSH1 0x0 DUP1 REVERT JUMPDEST PUSH1 0x0 SWAP2 DUP3 MSTORE PUSH1 0x20 SWAP1 SWAP2 KECCAK256 PUSH1 0x2 SWAP1 SWAP2 MUL ADD DUP1 SLOAD PUSH1 0x1 SWAP1 SWAP2 ADD SLOAD SWAP1 SWAP3 POP SWAP1 POP DUP3 JUMP JUMPDEST DUP1 CALLDATALOAD PUSH1 0x1 PUSH1 0x1 PUSH1 0xA0 SHL SUB NOT DUP2 AND DUP2 EQ PUSH2 0x5A2 JUMPI PUSH1 0x0 DUP1 REVERT JUMPDEST SWAP2 SWAP1 POP JUMP JUMPDEST PUSH1 0x0 PUSH1 0x20 DUP3 DUP5 SUB SLT ISZERO PUSH2 0x5B9 JUMPI PUSH1 0x0 DUP1 REVERT JUMPDEST PUSH2 0x5C2 DUP3 PUSH2 0x58A JUMP JUMPDEST SWAP4 SWAP3 POP POP POP JUMP JUMPDEST PUSH1 0x0 DUP1 PUSH1 0x0 PUSH1 0x60 DUP5 DUP7 SUB SLT ISZERO PUSH2 0x5DE JUMPI PUSH1 0x0 DUP1 REVERT JUMPDEST PUSH2 0x5E7 DUP5 PUSH2 0x58A JUMP JUMPDEST SWAP6 PUSH1 0x20 DUP6 ADD CALLDATALOAD SWAP6 POP PUSH1 0x40 SWAP1 SWAP5 ADD CALLDATALOAD SWAP4 SWAP3 POP POP POP JUMP JUMPDEST PUSH1 0x40 DUP1 DUP3 MSTORE DUP4 MLOAD SWAP1 DUP3 ADD DUP2 SWAP1 MSTORE PUSH1 0x0 SWAP1 PUSH1 0x20 DUP6 ADD SWAP1 PUSH1 0x60 DUP5 ADD SWAP1 DUP4 JUMPDEST DUP2 DUP2 LT ISZERO PUSH2 0x636 JUMPI DUP4 MLOAD DUP4 MSTORE PUSH1 0x20 SWAP4 DUP5 ADD SWAP4 SWAP1 SWAP3 ADD SWAP2 PUSH1 0x1 ADD PUSH2 0x618 JUMP JUMPDEST POP POP DUP4 DUP2 SUB PUSH1 0x20 DUP1 DUP7 ADD SWAP2 SWAP1 SWAP2 MSTORE DUP6 MLOAD DUP1 DUP4 MSTORE SWAP2 DUP2 ADD SWAP3 POP DUP6 ADD SWAP1 PUSH1 0x0 JUMPDEST DUP2 DUP2 LT ISZERO PUSH2 0x672 JUMPI DUP3 MLOAD DUP5 MSTORE PUSH1 0x20 SWAP4 DUP5 ADD SWAP4 SWAP1 SWAP3 ADD SWAP2 PUSH1 0x1 ADD PUSH2 0x654 JUMP JUMPDEST POP SWAP2 SWAP7 SWAP6 POP POP POP POP POP POP JUMP JUMPDEST PUSH1 0x0 DUP1 PUSH1 0x40 DUP4 DUP6 SUB SLT ISZERO PUSH2 0x691 JUMPI PUSH1 0x0 DUP1 REVERT JUMPDEST PUSH2 0x69A DUP4 PUSH2 0x58A JUMP JUMPDEST SWAP5 PUSH1 0x20 SWAP4 SWAP1 SWAP4 ADD CALLDATALOAD SWAP4 POP POP POP JUMP JUMPDEST PUSH4 0x4E487B71 PUSH1 0xE0 SHL PUSH1 0x0 MSTORE PUSH1 0x41 PUSH1 0x4 MSTORE PUSH1 0x24 PUSH1 0x0 REVERT JUMPDEST PUSH4 0x4E487B71 PUSH1 0xE0 SHL PUSH1 0x0 MSTORE PUSH1 0x32 PUSH1 0x4 MSTORE PUSH1 0x24 PUSH1 0x0 REVERT INVALID LOG2 PUSH5 0x6970667358 0x22 SLT KECCAK256 SWAP13 GASPRICE PUSH1 0xB2 0xCC LOG0 0xF6 EXP MULMOD DUP1 0xD2 SWAP5 MSTORE PUSH20 0x4AECBCF7DB79F2A50BA0D47AFC102664E9D16473 PUSH16 0x6C634300081C00330000000000000000 "},"methodIdentifiers":{"dynamicRecords(bytes12)":"9af6a7b6","getDynamicHash(bytes12)":"1e542dbe","getMasterHash(bytes12)":"a078b38e","getVersionHash(bytes12,uint256)":"e7b49329","getVersionHashes(bytes12)":"2eb3b8bf","records(bytes12)":"1924c8ad","storeDynamicHash(bytes12,uint256,bytes32)":"e62eb184","storeMasterHash(bytes12,uint256,bytes32)":"2724516f","storeVersionHash(bytes12,uint256,bytes32)":"3ce2cf59","versionRecords(bytes12,uint256)":"f9cdc0fc"}}}}}