{
  "_format": "hh-sol-artifact-1",
  "contractName": "Contrato",
  "sourceName": "contracts/contrato.sol",
  "abi": [
    {
      "anonymous": false,
      "inputs": [
        {
          "indexed": true,
          "internalType": "bytes12",
          "name": "oid",
          "type": "bytes12"
        },
        {
          "indexed": false,
          "internalType": "uint256",
          "name": "timestamp",
          "type": "uint256"
        },
        {
          "indexed": false,
          "internalType": "bytes32",
          "name": "dataHash",
          "type": "bytes32"
        }
      ],
      "name": "DataHashStored",
      "type": "event"
    },
    {
      "inputs": [
        {
          "internalType": "bytes12",
          "name": "oid",
          "type": "bytes12"
        }
      ],
      "name": "getHash",
      "outputs": [
        {
          "internalType": "uint256",
          "name": "timestamp",
          "type": "uint256"
        },
        {
          "internalType": "bytes32",
          "name": "dataHash",
          "type": "bytes32"
        }
      ],
      "stateMutability": "view",
      "type": "function"
    },
    {
      "inputs": [
        {
          "internalType": "bytes12",
          "name": "",
          "type": "bytes12"
        }
      ],
      "name": "records",
      "outputs": [
        {
          "internalType": "uint256",
          "name": "timestamp",
          "type": "uint256"
        },
        {
          "internalType": "bytes32",
          "name": "dataHash",
          "type": "bytes32"
        }
      ],
      "stateMutability": "view",
      "type": "function"
    },
    {
      "inputs": [
        {
          "internalType": "bytes12",
          "name": "oid",
          "type": "bytes12"
        },
        {
          "internalType": "uint256",
          "name": "timestamp",
          "type": "uint256"
        },
        {
          "internalType": "bytes32",
          "name": "dataHash",
          "type": "bytes32"
        }
      ],
      "name": "storeHash",
      "outputs": [],
      "stateMutability": "nonpayable",
      "type": "function"
    }
  ],
  "bytecode": "0x6080604052348015600f57600080fd5b506101eb8061001f6000396000f3fe608060405234801561001057600080fd5b50600436106100415760003560e01c80630d6e1f19146100465780631924c8ad14610091578063676223f7146100b8575b600080fd5b610078610054366004610160565b6001600160a01b031916600090815260208190526040902080546001909101549091565b6040805192835260208301919091520160405180910390f35b61007861009f366004610160565b6000602081905290815260409020805460019091015482565b6100cb6100c6366004610182565b6100cd565b005b60408051808201825283815260208082018481526001600160a01b031987166000818152808452859020935184559051600190930192909255825185815290810184905290917f2f521e3d1c0ed1bca7fbe31106be0356f2247084c352b18408c9a1453edc5c58910160405180910390a2505050565b80356001600160a01b03198116811461015b57600080fd5b919050565b60006020828403121561017257600080fd5b61017b82610143565b9392505050565b60008060006060848603121561019757600080fd5b6101a084610143565b9560208501359550604090940135939250505056fea26469706673582212204d5302c00d91dfee7b70b0ecd8fff5056744bbad3551e7a418575d34c08b0e7564736f6c634300081c0033",
  "linkReferences": {},
  "deployedLinkReferences": {}
}