{
  "_format": "hh-sol-artifact-1",
  "contractName": "Contrato",
  "sourceName": "contracts/contrato.sol",
  "abi": [
    {
      "anonymous": false,
      "inputs": [
        {
          "indexed": true,
          "internalType": "bytes12",
          "name": "oid",
          "type": "bytes12"
        },
        {
          "indexed": false,
          "internalType": "uint256",
          "name": "timestamp",
          "type": "uint256"
        },
        {
          "indexed": false,
          "internalType": "bytes32",
          "name": "dynamicHash",
          "type": "bytes32"
        }
      ],
      "name": "DynamicHashStored",
      "type": "event"
    },
    {
      "anonymous": false,
      "inputs": [
        {
          "indexed": true,
          "internalType": "bytes12",
          "name": "oid",
          "type": "bytes12"
        },
        {
          "indexed": false,
          "internalType": "uint256",
          "name": "timestamp",
          "type": "uint256"
        },
        {
          "indexed": false,
          "internalType": "bytes32",
          "name": "masterHash",
          "type": "bytes32"
        }
      ],
      "name": "MasterHashStored",
      "type": "event"
    },
    {
      "anonymous": false,
      "inputs": [
        {
          "indexed": true,
          "internalType": "bytes12",
          "name": "oid",
          "type": "bytes12"
        },
        {
          "indexed": false,
          "internalType": "uint256",
          "name": "timestamp",
          "type": "uint256"
        },
        {
          "indexed": false,
          "internalType": "bytes32",
          "name": "versionHash",
          "type": "bytes32"
        },
        {
          "indexed": false,
          "internalType": "uint256",
          "name": "version",
          "type": "uint256"
        }
      ],
      "name": "VersionHashStored",
      "type": "event"
    },
    {
      "inputs": [
        {
          "internalType": "bytes12",
          "name": "",
          "type": "bytes12"
        }
      ],
      "name": "dynamicRecords",
      "outputs": [
        {
          "internalType": "uint256",
          "name": "timestamp",
          "type": "uint256"
        },
        {
          "internalType": "bytes32",
          "name": "dynamicHash",
          "type": "bytes32"
        }
      ],
      "stateMutability": "view",
      "type": "function"
    },
    {
      "inputs": [
        {
          "internalType": "bytes12",
          "name": "oid",
          "type": "bytes12"
        }
      ],
      "name": "getDynamicHash",
      "outputs": [
        {
          "internalType": "uint256",
          "name": "timestamp",
          "type": "uint256"
        },
        {
          "internalType": "bytes32",
          "name": "dataHash",
          "type": "bytes32"
        }
      ],
      "stateMutability": "view",
      "type": "function"
    },
    {
      "inputs": [
        {
          "internalType": "bytes12",
          "name": "oid",
          "type": "bytes12"
        }
      ],
      "name": "getMasterHash",
      "outputs": [
        {
          "internalType": "uint256",
          "name": "timestamp",
          "type": "uint256"
        },
        {
          "internalType": "bytes32",
          "name": "dataHash",
          "type": "bytes32"
        }
      ],
      "stateMutability": "view",
      "type": "function"
    },
    {
      "inputs": [
        {
          "internalType": "bytes12",
          "name": "oid",
          "type": "bytes12"
        },
        {
          "internalType": "uint256",
          "name": "dppVersion",
          "type": "uint256"
        }
      ],
      "name": "getVersionHash",
      "outputs": [
        {
          "internalType": "uint256",
          "name": "timestamp",
          "type": "uint256"
        },
        {
          "internalType": "bytes32",
          "name": "versionHash",
          "type": "bytes32"
        },
        {
          "internalType": "uint256",
          "name": "version",
          "type": "uint256"
        }
      ],
      "stateMutability": "view",
      "type": "function"
    },
    {
      "inputs": [
        {
          "internalType": "bytes12",
          "name": "oid",
          "type": "bytes12"
        }
      ],
      "name": "getVersionHashes",
      "outputs": [
        {
          "internalType": "uint256[]",
          "name": "timestamps",
          "type": "uint256[]"
        },
        {
          "internalType": "bytes32[]",
          "name": "versionHashes",
          "type": "bytes32[]"
        },
        {
          "internalType": "uint256[]",
          "name": "versions",
          "type": "uint256[]"
        }
      ],
      "stateMutability": "view",
      "type": "function"
    },
    {
      "inputs": [
        {
          "internalType": "bytes12",
          "name": "",
          "type": "bytes12"
        }
      ],
      "name": "records",
      "outputs": [
        {
          "internalType": "uint256",
          "name": "timestamp",
          "type": "uint256"
        },
        {
          "internalType": "bytes32",
          "name": "masterHash",
          "type": "bytes32"
        }
      ],
      "stateMutability": "view",
      "type": "function"
    },
    {
      "inputs": [
        {
          "internalType": "bytes12",
          "name": "oid",
          "type": "bytes12"
        },
        {
          "internalType": "uint256",
          "name": "timestamp",
          "type": "uint256"
        },
        {
          "internalType": "bytes32",
          "name": "dynamicHash",
          "type": "bytes32"
        }
      ],
      "name": "storeDynamicHash",
      "outputs": [],
      "stateMutability": "nonpayable",
      "type": "function"
    },
    {
      "inputs": [
        {
          "internalType": "bytes12",
          "name": "oid",
          "type": "bytes12"
        },
        {
          "internalType": "uint256",
          "name": "timestamp",
          "type": "uint256"
        },
        {
          "internalType": "bytes32",
          "name": "masterHash",
          "type": "bytes32"
        }
      ],
      "name": "storeMasterHash",
      "outputs": [],
      "stateMutability": "nonpayable",
      "type": "function"
    },
    {
      "inputs": [
        {
          "internalType": "bytes12",
          "name": "oid",
          "type": "bytes12"
        },
        {
          "internalType": "uint256",
          "name": "timestamp",
          "type": "uint256"
        },
        {
          "internalType": "bytes32",
          "name": "versionHash",
          "type": "bytes32"
        },
        {
          "internalType": "uint256",
          "name": "dppVersion",
          "type": "uint256"
        }
      ],
      "name": "storeVersionHash",
      "outputs": [],
      "stateMutability": "nonpayable",
      "type": "function"
    },
    {
      "inputs": [
        {
          "internalType": "bytes12",
          "name": "",
          "type": "bytes12"
        },
        {
          "internalType": "uint256",
          "name": "",
          "type": "uint256"
        }
      ],
      "name": "versionRecords",
      "outputs": [
        {
          "internalType": "uint256",
          "name": "timestamp",
          "type": "uint256"
        },
        {
          "internalType": "bytes32",
          "name": "versionHash",
          "type": "bytes32"
        },
        {
          "internalType": "uint256",
          "name": "version",
          "type": "uint256"
        }
      ],
      "stateMutability": "view",
      "type": "function"
    }
  ],
  "bytecode": "0x6080604052348015600f57600080fd5b506107d58061001f6000396000f3fe608060405234801561001057600080fd5b506004361061009e5760003560e01c80639af6a7b6116100665780639af6a7b614610160578063a078b38e14610187578063e62eb184146101b9578063e7b49329146101cc578063f9cdc0fc1461022d57600080fd5b80631924c8ad146100a35780631e542dbe146100e45780632724516f146101165780632eb3b8bf1461012b57806353cba4a21461014d575b600080fd5b6100ca6100b1366004610612565b6000602081905290815260409020805460019091015482565b604080519283526020830191909152015b60405180910390f35b6100ca6100f2366004610612565b6001600160a01b031916600090815260016020819052604090912080549101549091565b610129610124366004610634565b610263565b005b61013e610139366004610612565b6102da565b6040516100db939291906106a3565b61012961015b366004610710565b610497565b6100ca61016e366004610612565b6001602081905260009182526040909120805491015482565b6100ca610195366004610612565b6001600160a01b031916600090815260208190526040902080546001909101549091565b6101296101c7366004610634565b610585565b6102126101da366004610749565b6001600160a01b0319821660009081526002602081815260408084208585529091529091208054600182015491909201549250925092565b604080519384526020840192909252908201526060016100db565b61021261023b366004610749565b6002602081815260009384526040808520909152918352912080546001820154919092015483565b60408051808201825283815260208082018481526001600160a01b031987166000818152808452859020935184559051600190930192909255825185815290810184905290917f5f35067f386968f4fac5760cf309d18f16025a16cb7d23b1272f6afb3cf2c14991015b60405180910390a2505050565b6001600160a01b031981166000908152600360205260409020805460609182918291908067ffffffffffffffff81111561031657610316610773565b60405190808252806020026020018201604052801561033f578160200160208202803683370190505b5094508067ffffffffffffffff81111561035b5761035b610773565b604051908082528060200260200182016040528015610384578160200160208202803683370190505b5093508067ffffffffffffffff8111156103a0576103a0610773565b6040519080825280602002602001820160405280156103c9578160200160208202803683370190505b50925060005b8181101561048d5760008382815481106103eb576103eb610789565b60009182526020808320909101546001600160a01b03198b168352600282526040808420828552909252912080548951929350909189908590811061043257610432610789565b602002602001018181525050806001015487848151811061045557610455610789565b602002602001018181525050806002015486848151811061047857610478610789565b602090810291909101015250506001016103cf565b5050509193909250565b6001600160a01b03198416600090815260026020908152604080832084845290915281205490036104ef576001600160a01b031984166000908152600360209081526040822080546001810182559083529120018190555b604080516060808201835285825260208083018681528385018681526001600160a01b03198a16600081815260028086528882208a8352865290889020965187559251600187015590519490910193909355835187815290810186905292830184905290917faea086b6870efe42ce9c82f2ae6febf4e641fd48f7fc1967f5c74aebf5a34825910160405180910390a250505050565b60408051808201825283815260208082018481526001600160a01b0319871660008181526001808552908690209451855591519390910192909255825185815290810184905290917fde9ee63512b36bdd186dd245f28ec7129c70eeb0849d262f3f1b33ba93138d5d91016102cd565b80356001600160a01b03198116811461060d57600080fd5b919050565b60006020828403121561062457600080fd5b61062d826105f5565b9392505050565b60008060006060848603121561064957600080fd5b610652846105f5565b95602085013595506040909401359392505050565b600081518084526020840193506020830160005b8281101561069957815186526020958601959091019060010161067b565b5093949350505050565b6060815260006106b66060830186610667565b828103602084015280855180835260208301915060208701925060005b818110156106f15783518352602093840193909201916001016106d3565b505083810360408501526107058186610667565b979650505050505050565b6000806000806080858703121561072657600080fd5b61072f856105f5565b966020860135965060408601359560600135945092505050565b6000806040838503121561075c57600080fd5b610765836105f5565b946020939093013593505050565b634e487b7160e01b600052604160045260246000fd5b634e487b7160e01b600052603260045260246000fdfea264697066735822122090f06d4587a3d5be8d77bfd34f53558f5d2dae648cd12ed7a6ff02a5a110a95164736f6c634300081c0033",
  "linkReferences": {},
  "deployedLinkReferences": {}
}