{
  "_format": "hh-sol-artifact-1",
  "contractName": "Contrato",
  "sourceName": "contracts/contrato.sol",
  "abi": [
    {
      "anonymous": false,
      "inputs": [
        {
          "indexed": true,
          "internalType": "bytes12",
          "name": "oid",
          "type": "bytes12"
        },
        {
          "indexed": false,
          "internalType": "uint256",
          "name": "timestamp",
          "type": "uint256"
        },
        {
          "indexed": false,
          "internalType": "bytes32",
          "name": "dynamicHash",
          "type": "bytes32"
        }
      ],
      "name": "DynamicHashStored",
      "type": "event"
    },
    {
      "anonymous": false,
      "inputs": [
        {
          "indexed": true,
          "internalType": "bytes12",
          "name": "oid",
          "type": "bytes12"
        },
        {
          "indexed": false,
          "internalType": "uint256",
          "name": "timestamp",
          "type": "uint256"
        },
        {
          "indexed": false,
          "internalType": "bytes32",
          "name": "masterHash",
          "type": "bytes32"
        }
      ],
      "name": "MasterHashStored",
      "type": "event"
    },
    {
      "anonymous": false,
      "inputs": [
        {
          "indexed": true,
          "internalType": "bytes12",
          "name": "oid",
          "type": "bytes12"
        },
        {
          "indexed": false,
          "internalType": "uint256",
          "name": "timestamp",
          "type": "uint256"
        },
        {
          "indexed": false,
          "internalType": "bytes32",
          "name": "versionHash",
          "type": "bytes32"
        }
      ],
      "name": "VersionHashStored",
      "type": "event"
    },
    {
      "inputs": [
        {
          "internalType": "bytes12",
          "name": "",
          "type": "bytes12"
        }
      ],
      "name": "dynamicRecords",
      "outputs": [
        {
          "internalType": "uint256",
          "name": "timestamp",
          "type": "uint256"
        },
        {
          "internalType": "bytes32",
          "name": "dynamicHash",
          "type": "bytes32"
        }
      ],
      "stateMutability": "view",
      "type": "function"
    },
    {
      "inputs": [
        {
          "internalType": "bytes12",
          "name": "oid",
          "type": "bytes12"
        }
      ],
      "name": "getDynamicHash",
      "outputs": [
        {
          "internalType": "uint256",
          "name": "timestamp",
          "type": "uint256"
        },
        {
          "internalType": "bytes32",
          "name": "dataHash",
          "type": "bytes32"
        }
      ],
      "stateMutability": "view",
      "type": "function"
    },
    {
      "inputs": [
        {
          "internalType": "bytes12",
          "name": "oid",
          "type": "bytes12"
        }
      ],
      "name": "getMasterHash",
      "outputs": [
        {
          "internalType": "uint256",
          "name": "timestamp",
          "type": "uint256"
        },
        {
          "internalType": "bytes32",
          "name": "dataHash",
          "type": "bytes32"
        }
      ],
      "stateMutability": "view",
      "type": "function"
    },
    {
      "inputs": [
        {
          "internalType": "bytes12",
          "name": "oid",
          "type": "bytes12"
        },
        {
          "internalType": "uint256",
          "name": "versionIndex",
          "type": "uint256"
        }
      ],
      "name": "getVersionHash",
      "outputs": [
        {
          "internalType": "uint256",
          "name": "timestamp",
          "type": "uint256"
        },
        {
          "internalType": "bytes32",
          "name": "versionHash",
          "type": "bytes32"
        }
      ],
      "stateMutability": "view",
      "type": "function"
    },
    {
      "inputs": [
        {
          "internalType": "bytes12",
          "name": "oid",
          "type": "bytes12"
        }
      ],
      "name": "getVersionHashes",
      "outputs": [
        {
          "internalType": "uint256[]",
          "name": "timestamps",
          "type": "uint256[]"
        },
        {
          "internalType": "bytes32[]",
          "name": "versionHashes",
          "type": "bytes32[]"
        }
      ],
      "stateMutability": "view",
      "type": "function"
    },
    {
      "inputs": [
        {
          "internalType": "bytes12",
          "name": "",
          "type": "bytes12"
        }
      ],
      "name": "records",
      "outputs": [
        {
          "internalType": "uint256",
          "name": "timestamp",
          "type": "uint256"
        },
        {
          "internalType": "bytes32",
          "name": "masterHash",
          "type": "bytes32"
        }
      ],
      "stateMutability": "view",
      "type": "function"
    },
    {
      "inputs": [
        {
          "internalType": "bytes12",
          "name": "oid",
          "type": "bytes12"
        },
        {
          "internalType": "uint256",
          "name": "timestamp",
          "type": "uint256"
        },
        {
          "internalType": "bytes32",
          "name": "dynamicHash",
          "type": "bytes32"
        }
      ],
      "name": "storeDynamicHash",
      "outputs": [],
      "stateMutability": "nonpayable",
      "type": "function"
    },
    {
      "inputs": [
        {
          "internalType": "bytes12",
          "name": "oid",
          "type": "bytes12"
        },
        {
          "internalType": "uint256",
          "name": "timestamp",
          "type": "uint256"
        },
        {
          "internalType": "bytes32",
          "name": "masterHash",
          "type": "bytes32"
        }
      ],
      "name": "storeMasterHash",
      "outputs": [],
      "stateMutability": "nonpayable",
      "type": "function"
    },
    {
      "inputs": [
        {
          "internalType": "bytes12",
          "name": "oid",
          "type": "bytes12"
        },
        {
          "internalType": "uint256",
          "name": "timestamp",
          "type": "uint256"
        },
        {
          "internalType": "bytes32",
          "name": "versionHash",
          "type": "bytes32"
        }
      ],
      "name": "storeVersionHash",
      "outputs": [],
      "stateMutability": "nonpayable",
      "type": "function"
    },
    {
      "inputs": [
        {
          "internalType": "bytes12",
          "name": "",
          "type": "bytes12"
        },
        {
          "internalType": "uint256",
          "name": "",
          "type": "uint256"
        }
      ],
      "name": "versionRecords",
      "outputs": [
        {
          "internalType": "uint256",
          "name": "timestamp",
          "type": "uint256"
        },
        {
          "internalType": "bytes32",
          "name": "versionHash",
          "type": "bytes32"
        }
      ],
      "stateMutability": "view",
      "type": "function"
    }
  ],
  "bytecode": "0x6080604052348015600f57600080fd5b5061070a8061001f6000396000f3fe608060405234801561001057600080fd5b506004361061009e5760003560e01c80639af6a7b6116100665780639af6a7b61461015f578063a078b38e14610186578063e62eb184146101b8578063e7b49329146101cb578063f9cdc0fc146101de57600080fd5b80631924c8ad146100a35780631e542dbe146100e45780632724516f146101165780632eb3b8bf1461012b5780633ce2cf591461014c575b600080fd5b6100ca6100b13660046105a7565b6000602081905290815260409020805460019091015482565b604080519283526020830191909152015b60405180910390f35b6100ca6100f23660046105a7565b6001600160a01b031916600090815260016020819052604090912080549101549091565b6101296101243660046105c9565b6101f1565b005b61013e6101393660046105a7565b610268565b6040516100db9291906105fc565b61012961015a3660046105c9565b6103b0565b6100ca61016d3660046105a7565b6001602081905260009182526040909120805491015482565b6100ca6101943660046105a7565b6001600160a01b031916600090815260208190526040902080546001909101549091565b6101296101c63660046105c9565b610433565b6100ca6101d936600461067e565b6104a3565b6100ca6101ec36600461067e565b61054e565b60408051808201825283815260208082018481526001600160a01b031987166000818152808452859020935184559051600190930192909255825185815290810184905290917f5f35067f386968f4fac5760cf309d18f16025a16cb7d23b1272f6afb3cf2c14991015b60405180910390a2505050565b6001600160a01b031981166000908152600260205260409020805460609182918067ffffffffffffffff8111156102a1576102a16106a8565b6040519080825280602002602001820160405280156102ca578160200160208202803683370190505b5093508067ffffffffffffffff8111156102e6576102e66106a8565b60405190808252806020026020018201604052801561030f578160200160208202803683370190505b50925060005b818110156103a85782818154811061032f5761032f6106be565b906000526020600020906002020160000154858281518110610353576103536106be565b602002602001018181525050828181548110610371576103716106be565b906000526020600020906002020160010154848281518110610395576103956106be565b6020908102919091010152600101610315565b505050915091565b6001600160a01b0319831660008181526002602081815260408084208151808301835288815280840188815282546001808201855593885296859020915196909502019485559251939092019290925580518581529182018490527fe782b4225808eb3714b9926669526390bccba580056f1a3d65b7ee3568ef97fb910161025b565b60408051808201825283815260208082018481526001600160a01b0319871660008181526001808552908690209451855591519390910192909255825185815290810184905290917fde9ee63512b36bdd186dd245f28ec7129c70eeb0849d262f3f1b33ba93138d5d910161025b565b6001600160a01b031982166000908152600260205260408120805482919084106105135760405162461bcd60e51b815260206004820152601b60248201527f56657273696f6e20696e646578206f7574206f6620626f756e64730000000000604482015260640160405180910390fd5b6000818581548110610527576105276106be565b90600052602060002090600202019050806000015481600101549350935050509250929050565b6002602052816000526040600020818154811061056a57600080fd5b600091825260209091206002909102018054600190910154909250905082565b80356001600160a01b0319811681146105a257600080fd5b919050565b6000602082840312156105b957600080fd5b6105c28261058a565b9392505050565b6000806000606084860312156105de57600080fd5b6105e78461058a565b95602085013595506040909401359392505050565b6040808252835190820181905260009060208501906060840190835b81811015610636578351835260209384019390920191600101610618565b50508381036020808601919091528551808352918101925085019060005b81811015610672578251845260209384019390920191600101610654565b50919695505050505050565b6000806040838503121561069157600080fd5b61069a8361058a565b946020939093013593505050565b634e487b7160e01b600052604160045260246000fd5b634e487b7160e01b600052603260045260246000fdfea26469706673582212209c3a60b2cca0f60a0980d29452734aecbcf7db79f2a50ba0d47afc102664e9d164736f6c634300081c0033",
  "linkReferences": {},
  "deployedLinkReferences": {}
}