{
  "_format": "hh-sol-artifact-1",
  "contractName": "Contrato",
  "sourceName": "contracts/contrato.sol",
  "abi": [
    {
      "anonymous": false,
      "inputs": [
        {
          "indexed": true,
          "internalType": "bytes32",
          "name": "recordKey",
          "type": "bytes32"
        },
        {
          "indexed": false,
          "internalType": "uint256",
          "name": "timestamp",
          "type": "uint256"
        },
        {
          "indexed": false,
          "internalType": "bytes32",
          "name": "dataHash",
          "type": "bytes32"
        }
      ],
      "name": "DataHashStored",
      "type": "event"
    },
    {
      "inputs": [
        {
          "internalType": "bytes32",
          "name": "recordKey",
          "type": "bytes32"
        }
      ],
      "name": "getHash",
      "outputs": [
        {
          "internalType": "uint256",
          "name": "timestamp",
          "type": "uint256"
        },
        {
          "internalType": "bytes32",
          "name": "dataHash",
          "type": "bytes32"
        }
      ],
      "stateMutability": "view",
      "type": "function"
    },
    {
      "inputs": [
        {
          "internalType": "bytes32",
          "name": "",
          "type": "bytes32"
        }
      ],
      "name": "records",
      "outputs": [
        {
          "internalType": "uint256",
          "name": "timestamp",
          "type": "uint256"
        },
        {
          "internalType": "bytes32",
          "name": "dataHash",
          "type": "bytes32"
        }
      ],
      "stateMutability": "view",
      "type": "function"
    },
    {
      "inputs": [
        {
          "internalType": "bytes32",
          "name": "recordKey",
          "type": "bytes32"
        },
        {
          "internalType": "uint256",
          "name": "timestamp",
          "type": "uint256"
        },
        {
          "internalType": "bytes32",
          "name": "dataHash",
          "type": "bytes32"
        }
      ],
      "name": "storeHash",
      "outputs": [],
      "stateMutability": "nonpayable",
      "type": "function"
    }
  ],
  "bytecode": "0x6080604052348015600f57600080fd5b506101a88061001f6000396000f3fe608060405234801561001057600080fd5b50600436106100415760003560e01c806301e64725146100465780633cf5040a14610086578063d51fff18146100ae575b600080fd5b61006d61005436600461012d565b6000602081905290815260409020805460019091015482565b6040805192835260208301919091520160405180910390f35b61006d61009436600461012d565b600090815260208190526040902080546001909101549091565b6100c16100bc366004610146565b6100c3565b005b604080518082018252838152602080820184815260008781528083528490209251835551600190920191909155815184815290810183905284917fa76a86a3ef07c3951c4c0935b93f91e1460c6cf2304abc3799db806ff0fbd6c8910160405180910390a2505050565b60006020828403121561013f57600080fd5b5035919050565b60008060006060848603121561015b57600080fd5b50508135936020830135935060409092013591905056fea26469706673582212200d14f7ca36a9ff94dcf8ffc4a0c26bb04eea0f5686d7e76bc9133eb61bf9294264736f6c634300081c0033",
  "linkReferences": {},
  "deployedLinkReferences": {}
}