{
  "_format": "hh-sol-artifact-1",
  "contractName": "Contrato",
  "sourceName": "contracts/contrato.sol",
  "abi": [
    {
      "anonymous": false,
      "inputs": [
        {
          "indexed": true,
          "internalType": "uint256",
          "name": "parcelId",
          "type": "uint256"
        },
        {
          "indexed": true,
          "internalType": "uint256",
          "name": "prodId",
          "type": "uint256"
        },
        {
          "indexed": false,
          "internalType": "uint256",
          "name": "timestamp",
          "type": "uint256"
        },
        {
          "indexed": false,
          "internalType": "bytes32",
          "name": "dataHash",
          "type": "bytes32"
        }
      ],
      "name": "DataHashStored",
      "type": "event"
    },
    {
      "inputs": [
        {
          "internalType": "bytes32",
          "name": "",
          "type": "bytes32"
        }
      ],
      "name": "dataHashes",
      "outputs": [
        {
          "internalType": "bytes32",
          "name": "",
          "type": "bytes32"
        }
      ],
      "stateMutability": "view",
      "type": "function"
    },
    {
      "inputs": [
        {
          "internalType": "uint256",
          "name": "parcelId",
          "type": "uint256"
        },
        {
          "internalType": "uint256",
          "name": "prodId",
          "type": "uint256"
        },
        {
          "internalType": "uint256",
          "name": "timestamp",
          "type": "uint256"
        }
      ],
      "name": "getDataHash",
      "outputs": [
        {
          "internalType": "bytes32",
          "name": "",
          "type": "bytes32"
        }
      ],
      "stateMutability": "view",
      "type": "function"
    },
    {
      "inputs": [
        {
          "internalType": "uint256",
          "name": "parcelId",
          "type": "uint256"
        },
        {
          "internalType": "uint256",
          "name": "prodId",
          "type": "uint256"
        },
        {
          "internalType": "uint256",
          "name": "timestamp",
          "type": "uint256"
        },
        {
          "internalType": "bytes32",
          "name": "dataHash",
          "type": "bytes32"
        }
      ],
      "name": "storeDataHash",
      "outputs": [],
      "stateMutability": "nonpayable",
      "type": "function"
    }
  ],
  "bytecode": "0x6080604052348015600f57600080fd5b506102108061001f6000396000f3fe608060405234801561001057600080fd5b50600436106100415760003560e01c806337bf6a5b146100465780638ea768fe1461005b578063ee428b891461008d575b600080fd5b610059610054366004610163565b6100de565b005b61007b610069366004610195565b60006020819052908152604090205481565b60405190815260200160405180910390f35b61007b61009b3660046101ae565b6040805160208082019590955280820193909352606080840192909252805180840390920182526080909201825280519083012060009081529182905290205490565b604080516020808201879052818301869052606080830186905283518084039091018152608083018085528151918301919091206000818152928390529184902085905585905260a082018490529151859187917f1f77a54b335adb701de2259c977e384069c211c092f12a8420df3c8472fac3709181900360c00190a35050505050565b6000806000806080858703121561017957600080fd5b5050823594602084013594506040840135936060013592509050565b6000602082840312156101a757600080fd5b5035919050565b6000806000606084860312156101c357600080fd5b50508135936020830135935060409092013591905056fea2646970667358221220407b2891d6ac0a971277851627398168357a5b6de514ddaecf7cb9b3300ed93a64736f6c634300081c0033",
  "linkReferences": {},
  "deployedLinkReferences": {}
}